:10000000181B0020C11F000049050000BD1F000093
:10001000BD1F0000BD1F0000BD1F0000000000004C
:10002000000000000000000000000000BD1F0000F4
:10003000BD1F000000000000BD1F000019220000CD
:10004000BD1F0000850B0000950B0000A50B0000F4
:10005000B50B0000C50B0000D50B0000E50B000040
:10006000F50B0000050C0000150C0000250C00002D
:10007000350C0000450C0000550C0000650C00001C
:10008000750C0000BD1F0000BD1F0000BD1F00005B
:10009000BD1F0000BD1F0000BD1F0000BD1F0000F0
:1000A000BD1F0000F9060000090700001D07000041
:1000B00031070000450700005507000069070000F0
:1000C0007D07000091070000A1070000B5070000B0
:1000D000C9070000BD1F0000BD1F0000BD1F0000BC
:1000E000BD1F0000BD1F0000BD1F0000BD1F0000A0
:1000F000BD1F0000590500006905000079050000DA
:100100008905000099050000A9050000B905000057
:10011000C9050000BD1F0000BD1F0000BD1F00007D
:10012000BD1F0000BD1F0000BD1F0000BD1F00005F
:10013000BD1F0000BD1F0000BD1F0000BD1F00004F
:10014000BD1F0000BD1F0000BD1F0000BD1F00003F
:10015000BD1F0000BD1F0000BD1F0000BD1F00002F
:10016000BD1F0000BD1F0000BD1F0000BD1F00001F
:10017000BD1F0000BD1F0000BD1F0000FD0A0000E4
:1001800010B5054C237833B9044B13B10448AFF3D1
:1001900000800123237010BDE00900200000000052
:1001A000548B00000C4B43B10C480D4910B5AFF314
:1001B00000800C48036823B910BD0A48036833B9AE
:1001C0007047094B002BF7D0BDE810401847064B8D
:1001D000002BF5D0184700BF00000000548B000032
:1001E000E4090020548B0000000000002DE9F041DC
:1001F00080B90C469046002A0FDD8F18084E094D35
:10020000306821462B6898470134BC42F8D14046FB
:10021000BDE8F0814FF0FF38F9E78046F7E700BF0F
:10022000880A0020800A00200138022815D82DE90C
:10023000F0410E4614469AB10D46DFF838800C4F57
:10024000D8F8000015F8011B3B68984700280ADB26
:10025000A81B013CF4D1BDE8F0814FF0FF3070479E
:100260001046BDE8F0814FF0FF30BDE8F08100BFDF
:10027000840A0020880A0020F0B585B0154B984705
:1002800018238DF8043000248DF8054001278DF8DF
:1002900006708DF807408DF8084007238DF8093067
:1002A00002268DF80A608DF80B608DF80C701E2305
:1002B0008DF80D3001A8084B9847084B9847204609
:1002C000074DA8473846A8473046A847204605B0FE
:1002D000F0BD00BF2D0800000109000071080000FA
:1002E0006D09000010B582B000230093052302467B
:1002F00004210220014CA04702B010BDED0900000E
:1003000038B504460D46012804D929462046034B3A
:10031000984738BD024B9847F7E700BF310A000005
:10032000B509000008B5014B984708BD950A0000C3
:1003300038B50446022103200F4DA84703210220AF
:10034000A84702210846A847032108460B4B9847B7
:10035000022C07D8012C03D903210220074B984710
:100360002CB938BD02210846044B9847F2E7022118
:100370000320024B9847F4E7950A0000310A000079
:1003800030B583B0041E4FF011014FF00000B4BF30
:10039000124B134B9847002CB8BF6442114B9C4240
:1003A00010DC0D2100200E4DA84709210020A84790
:1003B00022460D4968460D4B984768460C4B9847B6
:1003C00003B030BDA4F5C334A03C0D210020034D83
:1003D000A84709210020A847EAE700BF310A00002A
:1003E000950A00009F86010044880000B92600009D
:1003F000E502000008B5034B53F8203003B19847DD
:1004000008BD00BF8C0A002010B41378012B2CD03B
:10041000436901248C4023EA040343615378012B90
:1004200027D0836901248C4023EA040383619378F5
:10043000012B22D0C36901248C4023EA0403C36149
:10044000D378012B1DD0036A01248C4023EA0403D6
:1004500003621379012B18D0836A012202FA01F199
:1004600023EA0101816210BC704744698B40234339
:10047000D3E784698B402343D8E7C4698B40234387
:10048000DDE7046A8B402343E2E7826A03FA01F165
:100490001143E7E700B583B0104B9847104BDB7969
:1004A000FF2B1AD0EFF31083B3FA83F35B090193A8
:1004B00072B6BFF35F8F00220A4B1A700199084A87
:1004C000D3790133D37129B10122064B1A70BFF3DE
:1004D0005F8F62B603B05DF804FBFEE7991300007E
:1004E000780A00202C00002070B49DF80C50144CA9
:1004F00044F821205CB203F01F02012696406209F5
:10050000920002F1604202F56142C2F88061002C63
:100510000EDB2D01EDB204F1604404F5614484F872
:1005200000531660012303FA01F1016070BC7047AB
:1005300003F00F032D01EDB2024CE554F1E700BFCB
:100540008C0A002014ED00E008B50020014B98470C
:1005500008BD00BFF503000008B50120014B984716
:1005600008BD00BFF503000008B50220014B984705
:1005700008BD00BFF503000008B50320014B9847F4
:1005800008BD00BFF503000008B50420014B9847E3
:1005900008BD00BFF503000008B50520014B9847D2
:1005A00008BD00BFF503000008B50620014B9847C1
:1005B00008BD00BFF503000008B50720014B9847B0
:1005C00008BD00BFF503000008B50820014B98479F
:1005D00008BD00BFF50300002DE9F04F83B0019185
:1005E000470207F1804707F56127D7F8D0A0154BE0
:1005F0001B68FBB10646144D0024A9464FF0010BC1
:10060000DFF8408005E001340835D8F80030A34217
:1006100010D959F83430B6EB531FF4D103F01F034F
:100620000BFA03F313EA0A0FEDD06B68002BEAD044
:100630009847E8E7019B0AEA0303C7F8D83003B0FC
:10064000BDE8F08F2C0A0020FC09002070B4274B75
:100650001C68052C48D800F01F050123AB4013F09F
:10066000FF0F38D113F47F4F31D113F47F0F30D106
:1006700003F07F43002B0CBF04230323450903EB46
:1006800085031933DBB25DB2194E46F8340006EB30
:10069000C406716003F01F010120884069098900C8
:1006A00001F1604101F56141C1F88001002D14DBC9
:1006B0001201D2B205F1604505F5614585F80023C8
:1006C00008600134094B1C60012070BC7047012395
:1006D000D4E70223D2E70023D0E703F00F0312018F
:1006E000D2B2044DEA54EBE70020EEE72C0A0020DA
:1006F000FC09002014ED00E008B5FF210020014BAB
:10070000984708BDD905000008B54FF47F41002087
:10071000014B984708BD00BFD905000008B54FF44C
:100720007F010020014B984708BD00BFD90500009C
:1007300008B54FF07F410020014B984708BD00BF2E
:10074000D905000008B5FF210120014B984708BDDD
:10075000D905000008B54FF47F410120014B9847AF
:1007600008BD00BFD905000008B54FF47F01012086
:10077000014B984708BD00BFD905000008B54FF0F0
:100780007F410120014B984708BD00BFD9050000FB
:1007900008B5FF210220014B984708BDD90500008C
:1007A00008B54FF47F410220014B984708BD00BFB8
:1007B000D905000008B54FF47F010220014B98478E
:1007C00008BD00BFD905000008B54FF07F410220E9
:1007D000014B984708BD00BFD905000003281FD86A
:1007E000DFE800F0020910170F4B5A699B690020DF
:1007F0001043194670470C4BDA691B6A00201043FE
:1008000019467047084B5A6A9B6A002010431946E4
:100810007047054BDA6A1B6B00201043194670477E
:1008200000200021704700BF0000084008B50A48BA
:100830000A4B98470A4B5B6913F0010F04D0002163
:100840000848094B984708BD084B9847044A536924
:1008500013F0010FFBD0F2E70000084099130000ED
:1008600000040F4000000F40451D0000890F0000EC
:10087000174B9B79FF2B29D082B0EFF31083B3FA8B
:1008800083F35B09019372B6BFF35F8F0022114BB4
:100890001A7001990E4A93790133937129B101229B
:1008A0000C4B1A70BFF35F8F62B60B4B5A6822F085
:1008B00004025A6002221A604FF480721A601A46CB
:1008C000D36813F0100FFBD002B07047FEE700BFF3
:1008D000780A00202C00002000000840074B5B68CD
:1008E00023F47C1300F01F020028B8BF42F020025E
:1008F00043EA0243014A5360704700BF00000840CA
:1009000010B5184955230B60037A1B0603F0F85302
:10091000C279120402F4F812134302791343827964
:10092000120202F4F85213434279520002F00E020E
:1009300013438B6003781B0603F07C524478837862
:10094000002B14BF00210221C3781B0203F4407363
:10095000134323430B43034A536090F90900024BAE
:10096000984710BD00000840DD08000040B908228B
:100970000F4B1A601A46D36813F0020FFBD0704772
:10098000012802D0022809D070472022084B1A60A3
:100990001A46D36813F0040FFBD070478022044B33
:1009A0001A601A46D36813F0080FFBD0ECE700BFBB
:1009B0000000084059B90C498A6B4FF4807303FA60
:1009C00000F000F4706022EA00008863704701299B
:1009D00009D105498A6B4FF4805303FA00F080B2C5
:1009E00022EA0000886370470000084010B4090242
:1009F00001F47C519DF80440002C18BF41F0010126
:100A0000400000F006000143084801645BB1117822
:100A100049B1501C1A44054B5964824203D010F866
:100A2000011B0029F8D110BC704700BF000008402E
:100A3000032801D8272900D97047F8B50D46044688
:100A4000124B98470126A5F1200EC5F1200706FAA2
:100A50000EF326FA07F73B4306FA05F21043194353
:100A6000032C12D8DFE804F002060A0E084B586186
:100A70009961F8BD064BD8611962F8BD044B586204
:100A80009962F8BD024BD8621963F8BDDD0700001A
:100A900000000840032801D8272900D97047F8B57D
:100AA0000D460446134B98470126A5F1200EC5F1CB
:100AB000200706FA0EF326FA07F73B4306FA05F27B
:100AC00020EA020021EA0301032C12D8DFE804F037
:100AD00002060A0E084B58619961F8BD064BD861B1
:100AE0001962F8BD044B58629962F8BD024BD86296
:100AF0001963F8BDDD0700000000084008B50122B9
:100B0000034B1A61034B1B6803B1984708BD00BF34
:100B100000000840300A0020102828BF0020800173
:100B200000F1804000F522207047000008B50D4B11
:100B30009847C269C36A12F0010F10D013F0040F76
:100B400001D0042008BD13F0020F01D0032008BD1E
:100B500003F00103002B14BF0220012008BD002078
:100B600008BD00BF190B000010B50446034B9847A1
:100B7000034B53F8243003B1984710BD2D0B0000F0
:100B8000B00A002008B50020014B984708BD00BFFF
:100B9000690B000008B50120014B984708BD00BF54
:100BA000690B000008B50220014B984708BD00BF43
:100BB000690B000008B50320014B984708BD00BF32
:100BC000690B000008B50420014B984708BD00BF21
:100BD000690B000008B50520014B984708BD00BF10
:100BE000690B000008B50620014B984708BD00BFFF
:100BF000690B000008B50720014B984708BD00BFEE
:100C0000690B000008B50820014B984708BD00BFDC
:100C1000690B000008B50920014B984708BD00BFCB
:100C2000690B000008B50A20014B984708BD00BFBA
:100C3000690B000008B50B20014B984708BD00BFA9
:100C4000690B000008B50C20014B984708BD00BF98
:100C5000690B000008B50D20014B984708BD00BF87
:100C6000690B000008B50E20014B984708BD00BF76
:100C7000690B000008B50F20014B984708BD00BF65
:100C8000690B000010B40B01934214D9C9004B0842
:100C900003EBC202B2FBF1F2D3085C1E4FF6FE7109
:100CA0008C4201D9012017E0416841F400214160E4
:100CB0000CE0012010E0590801EBC202B2FBF3F294
:100CC000D3085C1E4FF6FE718C42F2D8120402F477
:100CD000E0221A430262002010BC70470A4BC0F8A1
:100CE000E43000234360436283628823036024234B
:100CF00003604FF4807303604FF4002303604FF4EC
:100D000000330360704700BF0041535570B505467E
:100D10000C4616460F4B984700220F4B1A60A4B1A1
:100D20003246216828460D4B9847024678B96368D9
:100D3000A1680B4321690B43E1680B4306490B6033
:100D400069680B436B60104670BD0122FBE701220E
:100D5000F9E700BFDD0C0000340A0020850C00001C
:100D6000402303607047102303607047436913F00A
:100D7000020F1DBFC1F30801C161002001207047AF
:100D8000436913F0010F05D08369C3F308030B60B7
:100D9000002070470120704786B0036843F00103CC
:100DA0004A4A5367EFF31083B3FA83F35B09019365
:100DB00072B6BFF35F8F0021454B1970019B454907
:100DC00091610121916223B1414B1970BFF35F8F93
:100DD00062B63E4A536913F0080FFBD0EFF310835D
:100DE000B3FA83F35B09029372B6BFF35F8F0022FD
:100DF000374B1A70029A354B37499961C16859636C
:100E00002AB10122324B1A70BFF35F8F62B62F4AAC
:100E1000536913F0080FFBD0EFF31083B3FA83F399
:100E20005B09039372B6BFF35F8F0022284B1A70E1
:100E3000039A264B29499961816819632AB10122D5
:100E4000234B1A70BFF35F8F62B6204A536913F0C9
:100E5000080FFBD0EFF31083B3FA83F35B0904931D
:100E600072B6BFF35F8F0022194B1A70049A174BAA
:100E70001B499961016999632AB10122144B1A70C7
:100E8000BFF35F8F62B6114A536913F0080FFBD0AE
:100E9000EFF31083B3FA83F35B09059372B6BFF3E4
:100EA0005F8F00220A4B1A700599084A094B93611B
:100EB000436843F00103936229B10122044B1A7085
:100EC000BFF35F8F62B606B0704700BF00080E40E8
:100ED0002C000020280000AA340000AA300000AA3C
:100EE000380000AA244B9B6A13F0020F09D0224B52
:100EF0009B6A13F0010F04D01F4B5B6913F0040FC2
:100F000000D100B1704700B589B01C4B5B6913F08C
:100F1000010F28D04FF4807301930122164B1A64FD
:100F20001A46536913F0080FFBD0134B9B6A022239
:100F30008DF81C2023F4403343F0021302934FF446
:100F4000B7630393002106914FF0041304930591B6
:100F500001A80B4B9847084A536913F0040FFBD0C4
:100F600009B05DF804FB074B9847044A536913F036
:100F7000010FFBD0CEE700BF00080E4000040F4079
:100F8000990D0000890F000082B0EFF31083B3FACF
:100F900083F35B09019372B6BFF35F8F0022084BA6
:100FA0001A70019A074B08499961084919622AB1D8
:100FB0000122034B1A70BFF35F8F62B602B0704715
:100FC0002C00002000040F40200000AA0DA1050005
:100FD00070B483B0EFF31083B3FA83F35B0901932A
:100FE00072B6BFF35F8F00220E4B1A70019D830013
:100FF0000D4C54F82060012202FA01F131432033F4
:1010000003F47F7343F02A43084A936544F82010A1
:101010002DB10122034B1A70BFF35F8F62B603B08C
:1010200070BC70472C00002020000E4000000E40D5
:1010300070B483B0EFF31083B3FA83F35B090193C9
:1010400072B6BFF35F8F00220E4B1A70019E8300B1
:101050000D4D55F82020012404FA01F122EA010186
:10106000203303F47F7343F02A43084A936545F81D
:10107000201026B1034B1C70BFF35F8F62B603B024
:1010800070BC70472C00002020000E4000000E4075
:1010900030B583B00446EFF31083B3FA83F35B09F2
:1010A000019372B6BFF35F8F00220C4B1A70019D43
:1010B0000B4B9B6A63B12DB10122084B1A70BFF331
:1010C0005F8F62B621460220064B984703B030BDC1
:1010D00005210120034B9847EDE700BF2C000020BD
:1010E00000000E40D10F000010B582B00146022072
:1010F0000F4B9847EFF31083B3FA83F35B09019327
:1011000072B6BFF35F8F00220A4B1A70019C0A4B24
:101110009B6A43B12CB10122064B1A70BFF35F8F5B
:1011200062B602B010BD05210120014B9847F1E7DE
:10113000311000002C00002000000E4030B583B0BC
:101140000446EFF31083B3FA83F35B09019372B69D
:10115000BFF35F8F00220C4B1A70019D0B4BDB6AB3
:1011600063B12DB10122084B1A70BFF35F8F62B6D5
:1011700021460320064B984703B030BD06210120CD
:10118000034B9847EDE700BF2C00002000000E4005
:10119000D10F000010B582B0014603200F4B9847D5
:1011A000EFF31083B3FA83F35B09019372B6BFF3D5
:1011B0005F8F00220A4B1A70019C0A4BDB6A43B115
:1011C0002CB10122064B1A70BFF35F8F62B602B0DA
:1011D00010BD06210120014B9847F1E731100000B6
:1011E0002C00002000000E405B4B984227D059D8BD
:1011F000A3F5A023984222D010D9584B98421ED074
:1012000036D9574B98421AD044D8A3F50043984298
:1012100015D003F58043984217D110E0A3F5803331
:1012200098420CD013D8A3F58033984207D009D93F
:101230004C4B984203D003F58043984205D14FF0C0
:1012400037707047B0F1402FF9D000207047464BFF
:101250009842F4D007D9454B9842F0D003F5F843B3
:101260009842F2D1EBE7A3F570539842EDD1E6E74F
:10127000A3F580339842E2D007D93D4B9842DED0A7
:1012800003F580439842E0D1D9E7A3F58043984223
:10129000DBD1D4E7374B9842D1D003F58043984255
:1012A000D3D1CCE7344B9842C9D010D9334B9842B4
:1012B000C5D034D9324B9842C1D042D8A3F500638F
:1012C0009842BCD003F580639842BED1B7E7A3F53E
:1012D0007C339842B3D011D8A3F504339842AED0F2
:1012E00007D9284B9842AAD003F580639842ACD125
:1012F000A5E7A3F580439842A7D1A0E7224B9842E7
:101300009DD007D9214B984299D003F5805398423C
:101310009BD194E7A3F50053984296D18FE7A3F5AC
:10132000784398428BD007D9194B984287D003F560
:101330008063984289D182E7A3F58063984284D183
:101340007DE7144B98423FF47AAF03F580639842EF
:101350007FF47BAF73E700BF0080074000000440CC
:10136000008006400000014000C0014000C4014070
:101370000080034000C0064000000E4000000F4007
:10138000000C0F4000000A4000400A4000500A4094
:10139000000C0E4000100F4008B5AE4B984200F014
:1013A000A08124D9AC4B984200F0C38100F2E680C2
:1013B000A3F57C33984200F0A48140F2B080A74BA3
:1013C000984200F0AA8100F2CB80A3F540539842E6
:1013D00000F09B8103F50053984240F0C080042147
:1013E00001209F4B984704209E4B984708BDA3F5CA
:1013F000A023984200F0228116D99B4B984200F01E
:1014000060815BD9994B984200F063817AD8A3F54B
:101410000043984200F0598103F58043984270D10F
:101420001020934B984708BDA3F58033984200F0F5
:10143000F98021D8A3F58033984200F0E48012D9D6
:101440008C4B984200F0E38003F58043984212D120
:101450000320874B9847804B1A6C42F0550286490F
:1014600099651A6408BDB0F1402F03D10020804B6C
:10147000984708BD08BD08BD804B984200F0D68053
:1014800012D97F4B984200F0D58003F5F84398427B
:1014900013D10820764B98476F4B1A6C42F0040228
:1014A000754999651A6408BDA3F57053984203D134
:1014B00005206F4B984708BD08BD08BDA3F58033D4
:1014C000984200F0EF800BD96E4B984200F0F58007
:1014D00003F58043984213D10D20654B984708BD12
:1014E000A3F5804398420AD10A20614B98475A4B92
:1014F0001A6C42F00402604999651A6408BD08BD7F
:1015000008BD08BD604B984200F0E78003F58043BA
:10151000984203D11320564B984708BD08BDA3F548
:101520000433984200F0E1800FD9584B984200F004
:10153000E08003F58063984210D102210120484BDE
:1015400098470120474B984708BDA3F58043984230
:1015500003D11620464B984708BD08BD08BD08BDFD
:101560004B4B984200F0E18003F52043984204D1B0
:10157000092101203A4B984708BD08BD454B9842C8
:1015800000F0E68012D9444B984200F0EB802CD852
:10159000A3F50063984200F0E08003F58063984271
:1015A00022D1022105202E4B984708BDA3F5784390
:1015B000984200F0C3800CD9384B984200F0C380A9
:1015C00003F5806398420ED104210846244B9847C6
:1015D00008BDA3F58063984204D101210420204B6B
:1015E000984708BD08BD08BD08BD2D4B984200F0C6
:1015F000BE8003F58063984204D105210846184B4C
:10160000984708BD08BD0120194B984708BD022026
:10161000174B9847104B1A6C42F0550216499965C2
:101620001A6408BD0420124B984708BD0620104BD1
:10163000984708BD07200E4B984708BD09200C4B62
:101640009847054B1A6C42F004020B4999651A64DD
:1016500008BD00BF0080074000000E4000500A4057
:10166000D10F00003D110000000004400080064042
:101670009110000000000140400000AA00C001409D
:1016800000C401400080034000C0064000000A4042
:1016900000600A4000000F40000C0F40000C0E409C
:1016A00000100F400B20344B9847344B1A6C42F01B
:1016B0000402334999651A6408BD0C202E4B9847E3
:1016C00008BD0E202C4B984708BD0F202A4B984789
:1016D00008BD1120284B984708BD1220264B98477B
:1016E00008BD1520244B984708BD1720224B98476A
:1016F00008BD01210846234B98470020224B9847FC
:1017000008BD0220204B984708BD002101201D4B39
:10171000984703201C4B984708BD03210120194B13
:1017200098470520184B984708BD0620164B984748
:1017300008BD00210420134B984708BD0221042056
:10174000104B984708BD032104200E4B984708BD55
:10175000002105200B4B984708BD01210520094BAE
:10176000984708BD03210520064B984708BD042172
:101770000520044B984708BD9110000000000E4062
:10178000400000AAD10F00003D11000008B5AF4B8A
:10179000984200F0838124D9AD4B984200F0A28199
:1017A00000F2DE80A3F57C33984200F0838140F2A2
:1017B0009B80A84B984200F0898100F2B680A3F587
:1017C0004053984200F07A8103F50053984240F06C
:1017D000AB8004210120A04B984704209F4B9847E1
:1017E000AFE0A3F5A023984200F0138116D99C4BDB
:1017F000984200F01A814DD99A4B984200F01D8111
:1018000065D8A3F50043984200F0138103F58043A7
:1018100098425BD11020944B984792E0A3F5803317
:10182000984200F0EA801AD8A3F58033984200F07D
:10183000DC800BD98D4B984200F0DB8003F58043B0
:1018400098420BD10320884B98477AE0B0F1402FA3
:1018500003D10020844B984773E008BD08BD844B3A
:10186000984200F0CE800BD9824B984200F0CD8098
:1018700003F5F84398420CD108207B4B984760E071
:10188000A3F57053984203D10520774B984758E051
:1018900008BD08BDA3F58033984200F0BE800BD987
:1018A000754B984200F0BD8003F5804398420CD1FF
:1018B0000D206D4B984744E0A3F58043984203D137
:1018C0000A20694B98473CE008BD08BD08BD6B4B3A
:1018D000984200F0B68003F58043984203D113206C
:1018E000614B98472DE008BDA3F50433984200F002
:1018F000D9800FD9624B984200F0D88003F58063FD
:10190000984210D102210120534B98470120534B9C
:10191000984716E0A3F58043984203D11620524B16
:1019200098470EE008BD08BD08BD564B984200F030
:10193000D58003F52043984211D109210120464B5F
:101940009847434B9A6A40F60C731A4206D1404BB3
:101950001A6C22F07F024C4999651A6408BD08BDD3
:101960004A4B984200F0CD8012D9494B984200F082
:10197000D2802CD8A3F50063984200F0C78003F50D
:101980008063984222D102210520334B9847D8E743
:10199000A3F57843984200F0AA800CD93D4B9842B9
:1019A00000F0AA8003F5806398420ED10421084616
:1019B000294B9847C5E7A3F58063984204D10121DC
:1019C0000420254B9847BCE708BD08BD08BD324B35
:1019D000984200F0A58003F58063984204D1052168
:1019E00008461D4B9847ACE708BD01201E4B9847A1
:1019F000A7E702201C4B9847A3E704201A4B9847FF
:101A00009FE70620184B98479BE70720164B9847FF
:101A100097E70920144B984793E70B20124B984700
:101A20008FE70C20104B98478BE70E200E4B984702
:101A300087E70F200C4B984783E711200A4B984704
:101A40007FE71220084B98477BE700BF00800740E4
:101A500000000E4000500A403110000095110000B7
:101A60000000044000800640E91000000000014032
:101A700000C0014000C401400080034000C0064097
:101A800000000A4000600A40400000AA00000F4029
:101A9000000C0F40000C0E4000100F401520234B8F
:101AA00098474EE71720214B98474AE70020204BE4
:101AB000984746E702201E4B984742E70021012045
:101AC0001C4B984703201A4B98473AE70321012003
:101AD000184B98470520164B984732E70620144BC1
:101AE00098472EE700210420124B984729E702214E
:101AF0000420104B984724E7032104200D4B9847FE
:101B00001FE7002105200B4B98471AE7012105200C
:101B1000084B984715E703210520064B984710E727
:101B200004210520034B98470BE700BFE910000094
:101B3000951100003110000082B0EFF31083B3FA6A
:101B400083F35B09019372B6BFF35F8F0022084BEA
:101B50001A70019A074B4FF02A41996518602AB113
:101B60000122034B1A70BFF35F8F62B602B0704759
:101B70002C00002000000E4030B583B01C4C2046E5
:101B80001C4B98470123A3602246D36813F0010F32
:101B9000FBD00020184B9847002211464FF03770B9
:101BA000164B98470320164B9847164A00211648B3
:101BB000164B9847144D164C2846A04710F0010FBD
:101BC000FAD0EFF31083B3FA83F35B09019372B693
:101BD000BFF35F8F00220F4B1A70019B2BB10122C4
:101BE0000C4B1A70BFF35F8F62B603B030BD00BFFD
:101BF00000040A4099130000E50E0000F91D0000E2
:101C0000391B000080A9030000000F40D11C000018
:101C1000651D00002C00002000B589B001A8254BEF
:101C2000984701AA244906A8244B984706A8244BA4
:101C300098472448244B9847244B80225A64C3F881
:101C400068215A654FF080729A64C3F864215A671C
:101C5000C3F88820C3F8C820C3F808219A619A62A3
:101C60009A635A67C3F88820C3F8C820C3F80821CC
:101C70005A619A629A639A604FF080629A67C3F8D9
:101C80008820C3F8C820C3F808219A619A629A6331
:101C90009A604FF000629A67C3F88820C3F8C820A2
:101CA000C3F808219A619A629A639A6009B05DF854
:101CB00004FB00BFC91E0000000C0F40E11E000025
:101CC000951F000000100E409913000000140E40F4
:101CD0002DE9F04383B0C36923F0030EEFF31083C3
:101CE000B3FA83F35B09019372B6BFF35F8F0025EC
:101CF000114B1D70019E114CD4F808802768D4F850
:101D0000049062600523236001F0030141F00C019F
:101D100041EA0E010A4B98472560C4F80490C4F8C4
:101D2000088027602EB10122034B1A70BFF35F8F2A
:101D300062B603B0BDE8F0832C00002010E000E0A4
:101D400001000020C36931B143F480330349044AE0
:101D50009161C361704723F48033F7E71C0000AA48
:101D600000000F4040697047054B1A6822F040029E
:101D7000002814BF402300231343014A1360704717
:101D800000000A40024B986800F00100704700BF55
:101D900000000A4010B5024CA0470028FCD010BD3E
:101DA000851D000038B505460C46104B1B6898474A
:101DB0000F4B5B68002C12DB240224F07F4424F0DC
:101DC000FF0445F025452C43094B5C609B6803F0FC
:101DD0000C03084A1360054B1B68984738BD23F075
:101DE0003F0444F025442C43EEE700BF30000020C0
:101DF00000000A40380A002008B500292DD11D4BEB
:101E0000984214D91C4B984208D801201B4B984784
:101E10004FF0FF3111201A4B984708BD0120174B96
:101E200098474FF0FF311020154B984708BD12B16D
:101E3000144B984208D90020104B98474FF0FF31BF
:101E400011200F4B984708BD01200C4B98474FF0CD
:101E5000FF3111200A4B984708BD0B4B98428CBFAD
:101E600001200020054B98474FF0FF311120044B13
:101E7000984708BD80A8120100512502691D000085
:101E8000A51D0000001BB70000127A0082B00D4BA8
:101E90001B6813F4003F0CBF40F243334FF4376329
:101EA0000193019BDB080193019B5A1E0192002BB9
:101EB000FAD140F0AA42034B1A6040F02A40186061
:101EC00002B07047000C0F40002303604360836042
:101ED00010220273437301228273C273037470472A
:101EE00070B50C461646016042600846264B98477E
:101EF000256815F0080544D1236813F0010F2CD193
:101F0000236813F4803F32D1336870681843B36894
:101F10001843337B1B0203F4F8531843737B9B0471
:101F200003F4F8031843B37B002B0CBF2B4680232C
:101F30001843F37B002B18BF02252843134DA847F5
:101F4000206840F48030A847236813F4803FFBD01A
:101F500020460F4B9847012070BD206820F00100FB
:101F60000A4B9847236813F0010FFBD1C8E720689C
:101F700020F48030054B9847236813F4803FFBD151
:101F8000C2E7002070BD00BF991300008D1E000045
:101F90008D17000010B50468206820F00100054B83
:101FA0009847236813F0010FFBD12046024B984756
:101FB00010BD00BF8D1E00008D170000FEE7000061
:101FC00008B5174B174A9A4210D0174B144A9A4239
:101FD0000CD2013B9B1A23F0030304331344114931
:101FE00051F8040B42F8040B9A42F9D10F4B104AF6
:101FF0009A420AD2013B9B1A23F003030433134491
:10200000002142F8041B9342FBD10A4A0A4B23F0F9
:102010007F039360094B9847094B9847FEE700BF41
:1020200000000020548B0000E0090020180B002065
:10203000E009002000ED00E00000000005240000A1
:10204000752200000A4B1B6853B1094B1B681A1814
:102050000849914208DB1046054A1060184670474F
:10206000054A034B1A60F0E74FF0FF30704700BF9E
:102070003C0A0020FC7F0020181B00204FF0FF309E
:1020800070474FF400534B600020704701207047A9
:10209000002070470B4B1B6E13F0800F0BD1094BC8
:1020A0001B6E13F0800F05D1074B20225A64C3F832
:1020B00068219A657047044B20225A64C3F868214E
:1020C0005A65704700100E4000140E40F0B583B002
:1020D00004460E46002301931A4B98420AD01A4B2D
:1020E000984211D0194B984218D0194B9C421FD0DE
:1020F00003B0F0BD1F46174D01A93846A847002878
:10210000FAD1019B3370F0E71D46124C01A9284615
:10211000A0470028FAD1019B3370E9E71D460D4C1A
:1021200001A92846A0470028FAD1019B3370DFE7B8
:102130001D46084C01A92846A0470028FAD1019B5A
:102140003370D5E7004002400080024000C00240EA
:1021500000000340810D000070B50C46184B9842FA
:102160000AD0184B984210D0174B984216D0174BF4
:1021700098421CD0002070BD1E46154D21463046A9
:10218000A8470028FAD1012070BD1E46104D2146F7
:102190003046A8470028FAD1012070BD1E460C4DDC
:1021A00021463046A8470028FAD1012070BD1E46BE
:1021B000074D21463046A8470028FAD1012070BDBE
:1021C000004002400080024000C002400000034086
:1021D0006D0D000008B50D4BDB6813F0020F03D046
:1021E0000A4B02221A61DB680320094B9847094B0E
:1021F0001B6E13F0807F05D1064B1A6E1A6E12F01B
:10220000807FFAD00020024B984708BD00100F4095
:102210003103000000140E4010B5104C2368013348
:1022200023600A2103200E4B984722680D4B9A42E7
:102230000ADC0A4B1B680C4880FB0320DB17C3EB4E
:10224000A0000A4B984710BD0A210320084B98476D
:102250000E210320024B9847EBE700BF400A002005
:10226000010300009E860100676666668103000028
:102270002503000000B589B0454B9847454B98476A
:10228000454D464B1D60464A464B1A60464A474BF1
:102290001A604FF4E1330293C02303934FF40063B9
:1022A00004930024059406942846414B98472846F9
:1022B000404B9847024602A928463F4B984728467C
:1022C0003E4B984728463E4B98473E4E3368214642
:1022D00098683D4DA847336821465868A8473B4B4E
:1022E00098473B4D28463B4B98478DF808408DF862
:1022F00009408DF80A408DF80B4001248DF80C4000
:1023000002AA21462846344B984700942D23334A8D
:1023100021462846324EB04702232B63314B8022A0
:102320009A64C3F864215A67C3F88820C3F8C420AC
:10233000C3F808219A619A629A6322462A490720C3
:102340002A4B984718B92A482A4B9847FEE780221B
:10235000244BC3F89420284B4BF663325A60274A2B
:10236000F02182F823100021996007211960F033D1
:1023700093F8191393F82D1392F8232093F8191357
:1023800093F82D23120909091D481A4B9847FEE7B7
:10239000191C0000791B000000800240880A002000
:1023A00059210000840A0020CD200000800A00206E
:1023B00099130000E91100000D0D0000610D0000EF
:1023C000670D00003400002019250000790200008C
:1023D00000100F409504000009040000D521000002
:1023E000E904000000100E40952000004D0600009A
:1023F000488800005524000010E000E000ED00E0F7
:102400006488000070B50F4E0F4D761BB61018BFD4
:10241000002405D0013455F8043B9847A642F9D171
:102420000A4E0B4D761B06F07FFBB61018BF00243A
:1024300006D0013455F8043B9847A642F9D170BD47
:1024400070BD00BF348B0000348B00003C8B00005B
:10245000348B00000FB400B5074983B004AB0868A3
:1024600053F8042B8168019301F0BAFB03B05DF8C7
:1024700004EB04B0704700BF3400002070B486073E
:1024800046D0541E002A41D0CAB2034602E014F1DD
:10249000FF343BD303F8012B9D07F8D1032C2ED931
:1024A000CDB245EA05250F2C45EA054519D903F1BA
:1024B00010022646103E0F2E42F8105C42F80C5CCB
:1024C00042F8085C42F8045C02F11002F2D8A4F170
:1024D000100222F00F0204F00F041032032C1344F8
:1024E0000DD91E462246043A032A46F8045BFAD860
:1024F000221F22F003020432134404F003042CB11F
:10250000C9B21C4403F8011B9C42FBD170BC70474C
:1025100014460346C2E700BF00290CBF0222002276
:102520004FF4806300F000B82DE9F043614C25685A
:1025300083B004460F4690461E4615B1AB6B002B88
:1025400064D0B8F1020F06D0B8F1010F00F29F80FD
:10255000002EC0F29C80636ED80734D521462846F1
:1025600003F09CFA216B41B104F14003994202D07F
:10257000284603F011FC00232363B4F90C30002239
:10258000A26162601A063AD423F44A6323F003037B
:10259000B8F1020FA3811DD001AB6A46214628463F
:1025A00003F0A6FEA3891843A081002E32D1009E1D
:1025B000304603F015FF074600286BD0A38943F08F
:1025C0008003A38128E0A3899905C7D4A06D03F0F7
:1025D0008BFEC3E70025616E002604F1430243F041
:1025E00002030120A660CE07A38122602261606100
:1025F00001D498053ED5284603B0BDE8F083216993
:10260000284603F0C9FBB4F90C30BDE7284603F0B7
:102610009DFA96E7002FCBD0AB6B002B33D0009BFD
:10262000B4F90C2027609E421CBF42F40062A281D4
:10263000B8F1010F04BF42F00102A28192B212F080
:102640000803276166610ED0D1071AD5656E764200
:10265000002315F00105A661A36009D000252846D6
:1026600003B0BDE8F083A360656E15F00105F5D1F8
:102670009305C0D4A06D03F039FE284603B0BDE831
:10268000F083A660F0E7284603F060FAC7E74FF052
:10269000FF35B0E7DDF80090B14504D0484603F0BF
:1026A0009FFE074620B9B4F90C304FF0FF3592E792
:1026B0004E4683E7340000200EB4F0B59CB021AB49
:1026C0000F4953F8042B019305466FF00044086846
:1026D00002954FF402774FF6FF7602A90695ADF802
:1026E000147004940794ADF8166000F00BF8029B88
:1026F00000221A701CB0BDE8F04003B0704700BF64
:10270000340000202DE9F04FC3B00C460B919246E7
:102710000F930C9003F0D6FD03681A93184604F04B
:102720008FFFA3891990190603D52369002B01F0A7
:10273000038000230DF1C809139315931493279375
:10274000269318931B930993CDF89490C84616933B
:1027500017939AF800305446E3B1252B02D119E0C3
:10276000252B03D014F8013F002BF9D1A4EB0A0567
:1027700085B1269B279AC8F800A001332A44072B6D
:10278000C8F80450279226937FDC08F10808099BBB
:102790002B4409932378002B7FD000231A468DF811
:1027A000773019460D939B464FF0FF3063780A90BF
:1027B00004F1010A0AF1010AA3F12000582800F2ED
:1027C000C183DFE810F03802BF03BF034002BF033C
:1027D000BF03BF03BF03BF03BF0345020302BF0321
:1027E0005D006B02BF0386029D039D039D039D0355
:1027F0009D039D039D039D039D03BF03BF03BF0373
:10280000BF03BF03BF03BF03BF03BF03BF03370340
:102810005703BF035703BF03BF03BF03BF0398039F
:10282000BF03BF03AD03BF03BF03BF03BF03BF03AA
:102830005902BF03BF031E03BF03BF03BF03BF0390
:10284000BF03BF03BF03BF03BF03BF03C602DB0257
:102850005703570357038B02DB02BF03BF039002EA
:10286000BF039D02CC01B4020802BF03E101BF0314
:102870007E00BF03BF030D020D980F9340420D90E1
:102880004BF0040B9AF8003094E725AA0B990C98AA
:1028900004F044FF40B9C84679E7279B23B10C9860
:1028A0000B9925AA04F03AFF0B9B9B8913F0400F6C
:1028B000099B18BF4FF0FF330993099843B0BDE857
:1028C000F08F1BF0200F119340F0DD810F9A1BF069
:1028D000100F134640F06E851BF0400F00F06A8524
:1028E00014880432002501230F9200278DF8777099
:1028F0000A994A1C00F065822BF08002079254EA84
:10290000050240F06482002940F03C84002B40F036
:10291000D7841BF001030E9300F0048642AE3023EF
:1029200006F8413D0A9B0E9A9342B8BF134608939E
:102930000023129317B1089B01330893079B13F0F0
:102940000203109302D0089B02330893079B13F0F5
:10295000840540F00E830D9B089AA3EB020BBBF19C
:10296000000F40F30683BBF1100F279C269A29DD48
:1029700043462146A84610270C9C0B9D06E0ABF170
:10298000100BBBF1100F03F1080318DD0132B7483B
:1029900026921031072A279183E88100EFDD25AACE
:1029A0002946204604F0BAFE00287FF47DAFABF143
:1029B000100BBBF1100F2799269A4B46E6DC4546D3
:1029C0000C4698460132A94B26925C44072A27946C
:1029D00088E8080800F398849DF8777008F10808E3
:1029E00077B1269B013301340DF177010122072BCA
:1029F0002794269388E8060000F3DB8308F1080893
:102A0000109B6BB1269B013302341EA90222072BB7
:102A10002794269388E8060000F3D68308F1080877
:102A2000802D00F015830A9B0E9A9F1A002F36DD29
:102A3000102F269B8E4D27DD42462146B0464FF093
:102A4000100B2E460C9C0B9D04E0103F102F02F142
:102A5000080215DD01331031072B2791269382E8F8
:102A60004008F2DD25AA2946204604F057FE00283A
:102A70007FF41AAF103F102F2799269B4A46E9DCB6
:102A800035460C464646904601333C44072B279476
:102A9000269388E8A00000F3818308F10808079BCB
:102AA000DF0500F16882269B0E99C8F800600133AB
:102AB0000C44072B2794C8F80410269300F34D8389
:102AC00008F10808079B5B073AD50D9B089A9D1AE9
:102AD000002D35DD102D269B20DD10260C9FDDF806
:102AE0002CB004E0103D102D08F1080816DD01336C
:102AF0005E4A26931034072B279488E84400F1DDC2
:102B000025AA5946384604F009FE00287FF4CCAEC9
:102B1000103D102D279C269BC846E8DC0133534A04
:102B200026932C44072B279488E8240008DD25AA47
:102B30000B990C9804F0F2FD00287FF4B5AE279CA9
:102B4000099B0D9A08998A42ACBF9B185B180993A0
:102B5000002C40F00D8300232693C846F9E511931D
:102B60001BF0200340F0E3811BF0100240F02E84A4
:102B70001BF0400300F02A840F9913460A460432E2
:102B80000C880F920025B0E60F9A11931668002466
:102B90008DF87740151D002E00F0A7860A9A531C69
:102BA00000F009862146304603F0EAFE002800F0D6
:102BB000E186831B0E930A940F95CDF81CB023EA8F
:102BC000E373089312949DF87770B3E69AF8003097
:102BD00001222B21EEE54BF0200B9AF80030E9E5BD
:102BE0001193002A40F09587224B18931BF0200F79
:102BF00040F011810F9A1BF0100F134640F0E18353
:102C00001BF0400F00F0DD83043314880F93002580
:102C10001BF0010F00F00C8154EA050300F008815D
:102C200030239DF844208DF878308DF879204BF0D2
:102C3000020B022359E69AF8003000297FF4BAAD5E
:102C400001222021B6E54BF0010B9AF80030B1E5E6
:102C50000F9C23680D9318460028234603F10403B4
:102C6000FFF60AAE0F939AF80030A3E5C48800007F
:102C7000D4880000A48800004BF0100B1BF0200F3C
:102C800011933FF423AE0F9D073525F0070303F1A1
:102C90000802D3E900450F92012326E69AF8003096
:102CA0002A2B0AF1010400F02787A3F1300009283C
:102CB000A24600F2AD8600231C461AF8013B04EB45
:102CC000840400EB4404A3F130000928F5D90A94E8
:102CD00072E54BF0800B9AF800306BE54BF0400B3F
:102CE0009AF8003066E59AF800306C2B03BF9AF82A
:102CF00001304BF0200B0AF1010A4BF0100B59E5A3
:102D0000002A40F011871BF0200F40F0F9841BF0DF
:102D1000100F40F0AC841BF0400F00F0A8840F9A15
:102D2000136804320F92BDF824201A8011E50F9920
:102D3000B34B0C6818933022782304318DF8793026
:102D400011934BF0020B0F9100258DF87820022390
:102D5000CBE50F9911930A688DF8A02000230A464D
:102D60001F468DF87730043201230893CDF81CB04C
:102D70000A9712970F920E9328AEDFE51193002A5F
:102D800040F0EA861BF0200F5DD11BF0100F40F0E1
:102D900008831BF0400F00F004830F99B1F9004045
:102DA0000431E51722462B460F91002A73F10003E8
:102DB00058DB0A999DF877704A1C4FF001037FF4A5
:102DC0009BAD54EA050200F0DF81CDF81CB0012B69
:102DD00000F07B82022B40F0068218984E462309B1
:102DE00004F00F0143EA05732A091C461546435CAB
:102DF00006F8013D54EA0503F1D1A9EB06030E9351
:102E000090E51193002A40F0A3867E4B18931BF0A7
:102E1000200F3FF4EFAE0F9D073525F0070303F1B8
:102E200008021BF0010F0F92D3E900457FF4F4AEC6
:102E300002235AE51193002A40F086864BF0100BCE
:102E40001BF0200FA1D00F9D073525F00705D5E910
:102E50000023002A05F108011D4673F100030F91BC
:102E60001446A6DA2D27644265EB45058DF8777088
:102E700001233DE51193002A40F062860F9D07353E
:102E800025F0070303F108020F921A6815925B6898
:102E90001493149B159D23F00044284621464FF0BF
:102EA000FF32594B05F008FB002840F04A832846C2
:102EB00021464FF0FF32544B05F0E0FA002840F075
:102EC000408315A80DC8149905F0CEFA002840F0EB
:102ED00030859DF877704D4E4D4B2BF0800007905C
:102EE00011980322002108920A914728D8BF1E4654
:102EF0000E9212911EE54BF0080B9AF8003059E43F
:102F0000A3F1300000231C461AF8013B04EB8404B3
:102F100000EB4404A3F130000928F5D90D944BE4EB
:102F20004BF0100B11931BF020033FF41DAE0F9DCF
:102F3000073525F0070303F10802D3E900450F9296
:102F40000023D2E41193002A40F0E785119A002A69
:102F50003FF4A3AC002301211F4608918DF8A02067
:102F6000CDF81CB08DF877300A9312930E9128AEED
:102F7000E4E4279C34E5119B652B40F3A78015A85A
:102F80000DC8149905F066FA002800F05081269BC0
:102F9000204AC8F80020013301340122072B27946E
:102FA0002693C8F8042000F36A8308F108081F9BE1
:102FB000139A279C934203DB079BDD077FF582ADC5
:102FC000269B19991A9AC8F8002001330C44072B44
:102FD000C8F804102794269300F39E8308F108088C
:102FE000139B5E1E002E7FF76DAD102E269B0A4DA3
:102FF00040F3F58122461027DDF830B00B9C13E03A
:10300000A488000090880000FFFFEF7F8488000004
:1030100080880000C0880000D488000008F10808FB
:10302000103E102E40F3DA8101331032072B279225
:10303000269388E8A000F1DD25AA2146584604F031
:103040006DFB00287FF430AC279A269BC846E7E743
:103050000D9B089A9F1A002F7FF7E5AC102F269B37
:10306000B64D27DD42462146B0464FF0100B2E46A6
:103070000C9C0B9D04E0103F102F02F1080215DD9F
:1030800001331031072B2791269382E84008F2DDA7
:1030900025AA2946204604F041FB00287FF404AC11
:1030A000103F102F2799269B4A46E9DC35460C46EF
:1030B0004646904601333C44072B2794269388E8E4
:1030C000A00000F3328208F10808ACE4139B269FAD
:1030D000012B40F3FE81013701340123072F279490
:1030E0002697C8F80060C8F8043000F3038208F19E
:1030F0000808199A1A9BC8F8003001371444072FA2
:1031000027942697C8F8042000F3008208F10808E5
:1031100015A80DC8149905F09DF9139B002840F0DF
:103120000181013B013701361C44072F2697279464
:10313000C8F80060C8F8043000F3278108F10808D7
:103140001B9AC8F804200137144421AB072F279499
:103150002697C8F800307FF7B3AC25AA0B990C98D6
:1031600004F0DCFA00287FF49FAB279CC846A9E452
:1031700025AA0B990C9804F0D1FA00283FF4EBAC87
:10318000FFF792BBDDF81CB0012B00F03481022B5D
:1031900025D1CDF81CB0002400251EE625AA0B99E8
:1031A0000C9804F0BBFA00287FF47EAB279CC8463D
:1031B00075E425AA0B990C9804F0B0FA00287FF466
:1031C00073AB279CC8461BE425AA0B990C9804F006
:1031D000A5FA00287FF468AB279CC84620E4CDF808
:1031E0001CB000240025494600E03146E20842EACE
:1031F0004572E80804F0070305461446303354EAE4
:10320000050201F8013C01F1FF36EED1079AD20721
:103210007FF5F3AD302B3FF4F0AD0239302306F8E3
:10322000013CA9EB01030E930E46FFF77BBB1F99F0
:10323000002940F32E82129B139A9342A8BF134693
:10324000002B1F460DDD269BC8F8006001333C446F
:10325000072B2794C8F80470269300F31F8308F106
:103260000808129B002FA8BFDB1B002B1F4640F352
:10327000D680102F269B314D40F3ED8142462146EA
:10328000B0464FF0100B2E460C9C0B9D04E008320C
:10329000103F102F40F3DB8101331031072B2791B2
:1032A000269382E84008F2DD25AA2946204604F04C
:1032B00035FA00287FF4F8AA2799269B4A46E7E7C3
:1032C0000A9B0E934E46FFF72DBB002D08BF0A2C1C
:1032D000C0F08F804E46204629460A22002305F082
:1032E00029F9303206F8012D2046294600230A220A
:1032F00005F020F904460D4654EA0503EBD1A9EB8D
:1033000006030E93FFF70EBB25AA0B990C9804F049
:1033100005FA00287FF4C8AA9DF87770279CC84654
:10332000FFF75EBB5E1E002E7FF70AAF102E034D27
:1033300022DD22464FF0100B0C9C06E0D4880000E2
:10334000103E102E08F1080815DD01371032072F46
:103350002792269788E82008F2DD25AA0B992046B7
:1033600004F0DCF900287FF49FAA103E102E279A63
:10337000269FC846E9DC144601373444072F2794BA
:10338000269788E860007FF7D9AE25AA0B990C989C
:1033900004F0C4F900287FF487AA279C269FC8461A
:1033A000CEE60F9A146813460433E5170F932246AE
:1033B0002B46FAE404321C680F9201230025FFF724
:1033C00094BA1C6804330F93002521E40F990A4630
:1033D00004320C680F920025FFF787BA14460133B8
:1033E0003444072B2794269388E860007FF768AB66
:1033F000B3E6DDF81CB0CDF81CB042AE303401238A
:1034000006F8414D0E93FFF78DBA25AA0B990C983B
:1034100004F084F900287FF447AA279CC8461F9A25
:10342000139B9A4244DB079BD90741D4139B129804
:103430009A1A1D1A9542A8BF1546002D0EDD269931
:10344000C8F80450013106442C440729C8F800602C
:103450002794269100F33B8208F10808002DACBFA9
:10346000561B1646002E7FF72DAB102E269BB04D17
:10347000B5DD22461027DDF830B00B9C04E008F1E2
:103480000808103E102EA9DD01331032072B2792B9
:10349000269388E8A000F2DD25AA2146584604F0CC
:1034A0003DF900287FF400AA279A269BC846E8E742
:1034B000269B19981A99C8F8001001330444072B69
:1034C0002794C8F80400269300F3F58108F1080852
:1034D000ACE7079BDA073FF5FEAD01370134012366
:1034E000072F27942697C8F80060C8F804307FF7A4
:1034F00025AE4AE725AA0B990C9804F00FF900288D
:103500007FF4D2A9279C269FC846F2E525AA0B99ED
:103510000C9804F003F900287FF4C6A9279C269F85
:10352000C846F5E54E46FFF7FDB925AA0B990C985C
:1035300004F0F4F800287FF4B7A9279CC846FFF7E9
:1035400072BA159C22462046149C2346214604F05C
:10355000B3FF002840F086820A9B0133119B23F0C1
:1035600020030E9300F0E281472B00F01E814BF404
:1035700080730793149B1F1E159B0893BBBF3B468C
:1035800003F1004700232D231093119B662B00F0BD
:10359000BB81462B00F0DF800E9B089A452B0CBFA9
:1035A0000A9B0A9D23A820A908BF5D1C04900391D3
:1035B0001FA802213B460290019500910C9801F052
:1035C000A3FA119B672B064640F0E0811BF0010F28
:1035D00000F046827419169A0898179B394604F031
:1035E00039FF002840F06581239BA34206D2302199
:1035F0005A1C23921970239B9C42F9D89B1B13934E
:103600000E9B472B00F0E980119B652B40F3CD8189
:10361000119B662B1F9B129300F09E81139B129AA5
:103620001946914200F38A811BF0010F40F013828A
:1036300022EAE273089367230E921193109B002BEA
:1036400040F0C4800A939DF87770FFF773B9354650
:103650000C464646904601333C44072B279426935C
:1036600088E8A0003FF7D1AE08F10808D7E60F9A26
:10367000136804320F92099A1A60FFF76AB825AAF4
:103680000B990C9804F04AF800287FF40DA9C8465D
:103690008DE4269B274AC8F800200133013401221B
:1036A000072B27942693C8F8042072DC08F1080839
:1036B00029B9139B1BB9079BD8077FF503AA269B43
:1036C00019981A9AC8F80020013302462244072BA1
:1036D0002792C8F80400269300F38D8108F10808AA
:1036E0000029C0F265811399C8F8006001338C1875
:1036F000072B27942693C8F804107FF7E1A92CE53F
:103700000F9A09991368CD170846043229460F927B
:10371000C3E90001FFF71DB825AA0B990C9803F027
:10372000FDFF00287FF4C0A8279CC84658E400BFCE
:10373000D4880000C088000040210C9802F058FE98
:103740000B9A10601061002800F0F2810B9A402360
:103750005361FEF7EEBF23A820A90A9C04900391B1
:103760001FA803210290089A01943B4600910C98EF
:1037700001F0CAF925460646119B462B06EB0504C7
:103780007FF429AF3378302B00F078811F9D2C44D3
:1037900021E725AA0B990C9803F0C0FF00287FF4BD
:1037A00083A81F99279CC84682E70A9B002B08BF65
:1037B00001230A93DBE630460A9403F041FF0F959C
:1037C0000E90CDF81CB00346FFF7F9B92D27002362
:1037D0008DF877700A93FFF7AEB81F9B12931A46C5
:1037E000033304DB0A9B19469142BFF617AF119BC6
:1037F000023B11939DF844308DF88430129B013BBD
:10380000002B1F93BDBF129BC3F101032D222B225E
:10381000092B8DF8852040F316810DF19304204685
:10382000AB4D00E0104685FB0312D917C1EBA20196
:1038300001EB8102A3EB42023032092900F8012C8E
:103840000B4600F1FF32EDDC30330238D9B284424E
:1038500002F8011C40F265810DF18600134601E07B
:1038600013F8011B00F8011BA342F9D101339B1A85
:103870000DF18602134421AA9B1A139A1B93012A65
:1038800013440E9340F319810E9B199A13440E931F
:1038900023EAE373089300231293CFE625AA0B993A
:1038A0000C9803F03BFF00287EF4FEAF279CC8462F
:1038B000D7E42346A2E625AA0B990C9803F02EFF25
:1038C00000287EF4F1AF1F9A279CC846AEE525AAD2
:1038D0000B990C9803F022FF00287EF4E5AF1F9AA5
:1038E000139B279C9A1AC846B8E50A9B1296062B8A
:1038F00028BF06230A96374608930F95CDF81CB0CB
:103900000E93744EFFF716B823A820A90A9D0490C1
:1039100003911FA803210290089A01953B4600914C
:103920000C9801F0F1F8064644192BE706230A9398
:103930001DE62D278DF87770FFF7CDBA199A139BE6
:103940001344129A0E93002A40F3B08023EAE373E3
:1039500008936723119371E6002B40F3C3800A9A02
:10396000002A40F099801BF0010F40F095800893E9
:103970000E9363E60A9B08930E930A900F95CDF879
:103980001CB012909DF87770FEF7D4BF119B472BA7
:103990007FF420AE1BF0010F7FF4EEAE239B9B1B48
:1039A00013930E9B472B3FF418AF1F9B129321E7F5
:1039B0004F421031484D2FDA1024DDF830B004E0CA
:1039C00008F10808103F102F26DD01331032072BB5
:1039D00027922693C8F80050C8F80440F0DD25AAC5
:1039E0000B99584603F09AFE00287EF45DAF279AA3
:1039F000269BC846E6E725AA0B990C9803F08EFE95
:103A000000287EF451AF1F99279A269BC84667E687
:103A100000200A90FEF7D0BE01333A44072B88E815
:103A2000A0002792269308F108087FF75CAE25AA2C
:103A30000B990C9803F072FE00287EF435AF279A9C
:103A4000269BC8464FE6303330228DF887308DF8FC
:103A5000862022AB0FE7129B199A13440E9375E749
:103A6000239BCBE5149B1D4E002BB6BF2D279DF845
:103A700077708DF877701A4BFFF72FBA169A08985F
:103A8000179B394604F0E6FC00287FF47FAEC5F1B1
:103A900001051F952C449EE5129B199A13440A9A1E
:103AA0001A4422EAE2730E920893C7E5129B0E9A1B
:103AB000C3F101031A441346D0E71BF0010312932C
:103AC0007FF4E2AE0E9B23EAE3730893B6E500BFF2
:103AD00067666666B8880000D48800008C8800009D
:103AE000888800000A9B13B91BF0010F02D0199BB4
:103AF0000133D4E701233AE70F9D9AF80130286893
:103B000040EAE0700A9028460430A2460F90FEF783
:103B100051BE8DF87710FFF767B88DF87710FFF773
:103B200015BA0DF18603A6E68DF87710FFF7EBB80E
:103B30000C9A0C2313604FF0FF330993FEF7BDBEC0
:103B40008DF87710FFF79AB98DF87710FFF776B9EF
:103B50008DF87710FFF759B98DF87710FFF712B984
:103B60002DE9F84F4B6E9C0493462FD5936812684D
:103B700053B30E46074602F1080919E920045FEA2B
:103B80009A0817D0043D002401E0A04510D0324629
:103B900055F8041F384602F07BF8431C04F1010479
:103BA000F3D10023CBF80830CBF80430BDE8F88F10
:103BB000DBF808302AF0030AA3EB0A03CBF808303D
:103BC00009F10809002BD8D10020EAE702F0CAF970
:103BD0000023CBF80830CBF80430BDE8F88F00BFE5
:103BE0002DE9F04FADB01D468B46904607930690E9
:103BF00018B1836B002B00F0F380DBF86430BBF965
:103C00000C00DF0781B202D48E0540F1FC808C04E9
:103C10000AD4DBF8643040F4005123F40053ABF8CD
:103C20000C10CBF8643089B2080740F1B380DBF8A0
:103C30001030002B00F0AE8001F01A030A2B00F0C8
:103C4000B58000230DF170090B931193109303932A
:103C5000CDF83C90CA46CDF810B098F800304446F4
:103C6000FBB1252B02D11CE0252B03D014F8013F1A
:103C7000002BF9D1A4EB08059DB1109B119ACAF84D
:103C8000008001332A44072BCAF804501192109384
:103C90007ADD002A40F0B084039B10922B44CA4680
:103CA00003932378002B00F0E08300204FF0000303
:103CB0008DF8373004F10108627805460646034660
:103CC0004FF0FF3408F10108A2F12001582900F259
:103CD000DE82DFE811F02102DC02DC022902DC02D4
:103CE000DC02DC02DC02DC02DC0289029502DC027E
:103CF000A200BD02DC029F01A401A401A401A40151
:103D0000A401A401A401A401A401DC02DC02DC02E0
:103D1000DC02DC02DC02DC02DC02DC02DC02B201DE
:103D2000DC02DC02DC02DC02DC02DC02DC02DC02A3
:103D3000DC02DC029701DC02DC02DC02DC02DC02D9
:103D40009B01DC02DC025302DC02DC02DC02DC024E
:103D5000DC02DC02DC02DC02DC02DC025A021B02B6
:103D6000DC02DC02DC026E021B02DC02DC027302FB
:103D7000DC02F50182010902D702DC029A02DC02B0
:103D8000A700DC02DC022E020AF1080A039B2B4486
:103D9000039386E75946069800F0ACFD18BBBBF8C4
:103DA0000C1001F01A030A2B7FF44BAFBBF90E3055
:103DB000002BFFF646AFDBF86430DB0705D48F0538
:103DC00003D4DBF8580002F091FA2B4642465946DC
:103DD000069800F04DFD039003982DB0BDE8F08FDC
:103DE00001F0B4FE09E7DBF86430D90704D4BBF86E
:103DF0000C309A0540F1AA844FF0FF3303930398E7
:103E00002DB0BDE8F08FDBF8580002F06DFABBF979
:103E10000C0081B2FBE67642079243F0040398F867
:103E200000204FE708969E0600F150840799DD06B2
:103E30000A4600F1EF83580640F1EC830E88043106
:103E40000027012207914FF000018DF8371000255F
:103E5000611C00F0168123F08001029156EA0701EF
:103E600040F01481002C40F05C83002A40F0B783BE
:103E700013F00103059300F057840DF1B00B3023CC
:103E80000BF8413D059BA342B8BF234601930DB1FA
:103E900001330193029B13F00203099302D0019BAB
:103EA00002330193029B13F084030A9340F01782BC
:103EB000089B019A9D1A002D40F31182102D40F3AA
:103EC0009084109B119AC44ED6461027A2461946DC
:103ED000069C07E001F1020C0EF1080E0146103DB0
:103EE000102D11DD481C1032072811928EE8C000F9
:103EF0001090EFDD002A40F0E481103D102D1146B6
:103F00004FF0010CCE46EDDC54466146F2462A44A1
:103F100007291192CAF80060CAF80450109100F302
:103F2000EC829DF837500AF1080A481C002D40F039
:103F3000DE81099B002B00F0F88102320EA90223DA
:103F40000728119210908AE80A0040F3EA81002ABB
:103F500040F08C830A9B802B4FF001001146CA462B
:103F600040F0E781089B019D5E1B002E40F3E1813C
:103F7000102E9A4D40F35084D4461027A246069C3A
:103F800007E001F1020E0CF1080C0146103E102E64
:103F900011DD481C1032072811928CE8A000109007
:103FA000EFDD002A40F09D82103E102E4FF0010EF2
:103FB0001146CC46EDDC5446E2463244BEF1070FD2
:103FC00011928AE86000CDF840E000F369830AF1BD
:103FD000080A0EF101007146ABE1089613F02002C9
:103FE00040F08C8313F0100140F01A8313F040026C
:103FF00000F0168307980A460146043106880791A7
:10400000002720E7089643F01003E7E7089643F0FF
:10401000100308E743F0800398F8002052E6A2F16D
:104020003001002618F8012B06EB860601EB460648
:10403000A2F130010929F5D946E60896002840F09A
:10404000088443F010039E0600F14C83DD0600F166
:10405000F382580640F1F082079DB5F900602A46C8
:10406000F7170432304639460792002871F10002F2
:10407000C0F25D83611C9DF837504FF001027FF460
:10408000EAAE56EA070100F04D820293012A00F0E1
:104090008C82022A40F05C820B98CB46330906F0F2
:1040A0000F0143EA07733A091E461746435C0BF8B3
:1040B000013D56EA0703F1D1A9EB0B030593E1E6B5
:1040C000002840F0C083990600F16783DA0600F10A
:1040D000F1805B0640F1EE80079A13680432079284
:1040E000BDF80C201A80B8E507983D4A08960B9257
:1040F00006687822302104308DF8392043F002031D
:10410000079000278DF8381002229CE608960028B8
:1041100099D08DF8375096E798F80020002D7FF45D
:10412000D1AD01202025CDE543F0010398F8002012
:10413000C8E50896002840F0938329490B919F0613
:1041400000F1E8820798DE06014600F170825D0604
:1041500040F16D820431068807910027D80740F1AD
:10416000228256EA070100F01E8230218DF83920A4
:1041700043F002038DF83810022264E60896002806
:1041800040F06B8317490B91D9E7079908960A68A5
:104190008DF848204FF000000A468DF837000432B1
:1041A00001200190079205900DF1480B0293002425
:1041B00070E643F0400398F8002083E598F800206B
:1041C0006C2A03BF98F8012043F0200308F101088E
:1041D00043F0100376E500BFE4880000F488000097
:1041E000A48800009088000007990E680A46002EF7
:1041F00002F10402FFF60FAE079298F8002061E585
:1042000098F8002001202B255CE507990896D1F845
:1042100000B04FF000028DF837200E1DBBF1000FEB
:1042200000F0E582671C00F0C48222460021584657
:10423000019302F0A5FB019B002800F0E582A0EBB2
:104240000B020592079602939DF83750002419E659
:1042500098F800202A2A08F1010700F0E982A2F16B
:1042600030010929B8464FF000043FF62DAD18F88B
:10427000012B04EB840401EB4404A2F13001092971
:10428000F5D921E543F0200398F800201AE50896B7
:10429000002840F0DB82002A00F0E78001218DF841
:1042A00048204FF0000201918DF8372005910DF163
:1042B000480B7BE7079A136804320792039A1A6047
:1042C000CBE40FAA04992046FFF74AFC002840F0EF
:1042D00039811099119A01F1010CCE46FFE5109930
:1042E000119A481C9DF83750002D3FF422AE013240
:1042F0000DF137050121072811921090CAF80050DE
:10430000CAF8041040F30881002A40F0BC81099BE0
:10431000002B3FF41FAE0EAB022208461C931D92E9
:10432000CA4601460AF1080A01300A9B802B3FF475
:1043300019AE059BE41A002C2EDD102CB34D1EDDAA
:10434000D6461026069FDDF810A006E0881C0EF168
:10435000080E1946103C102C10DD4B1C1032072B98
:1043600011928EE860001093F0DD002A65D1103CB8
:10437000102C4FF001001146CE46EEDCF2462244EE
:1043800007281192CAF80050CAF80440109000F3B0
:1043900085800AF1080A01300599CAF800B00A447C
:1043A00007281192CAF80410109040F38280002A66
:1043B00040F01881029B1092580735D5089B01994F
:1043C0005C1A002C40F3E780CA46102C40F3188298
:1043D00010998F4E069FDDF810B0102506E0881C5E
:1043E0000AF1080A1946103C102C11DD4B1C103242
:1043F000072B1192CAF80060CAF804501093EEDD42
:1044000042BB103C102C4FF001001146CA46EDDCB7
:10441000224407281192CAF80060CAF8044010909C
:1044200051DD002A40F09B81039B089A01998A4242
:10443000ACBF9B185B1803934EE00FAA5146384659
:10444000FFF78EFB002840F03F811099119A481C1D
:10445000CE467FE70FAA59463846FFF781FB60B981
:104460001099119A481CCA46BDE7119BDDF810B09F
:10447000002B40F0D48100231093DBF8643013F05C
:10448000010FBBF80C3002D19A0540F1DE805B06CB
:104490003FF5B2AC03982DB0BDE8F08F002A40F094
:1044A0000681059A1D9201231192CDF870B01093E8
:1044B000CA460AF1080A029B590704D5089B0199CC
:1044C0005C1A002C81DC039B089901988142ACBFE7
:1044D0005B181B18039372BB00231093CA46FFF7A7
:1044E000BCBB0FAA04992046FFF73AFB50BB1099BA
:1044F000119A01F1010ECC4648E5002A40F04081B6
:104500009DF83710002900F01B8101220DF13701C1
:1045100010461D921C91CA4601460AF1080A013054
:1045200007E5029B012A00F09880022A0DD1029330
:1045300000260027B0E50FAA04990698FFF710FBA4
:104540000028C9D0DDF810B097E7029300260027B5
:10455000494600E05946F20842EA4772F80806F078
:10456000070307461646303356EA070201F8013CB6
:1045700001F1FF3BEED1029AD6077FF59DAD302BBE
:104580003FF49AAD023930230BF8013CA9EB01034B
:1045900005938B4676E4039B089A8A42ACBF9B182E
:1045A0005B18039398E702224DE4002F08BF0A2E00
:1045B00052D3CB46304639460A22002303F0BAFFD5
:1045C00030320BF8012D3046394600230A2203F021
:1045D000B1FF06460F4656EA0703EBD16CE505949A
:1045E000CB464FE40FAA04990698FFF7B9FA0028C2
:1045F000A8D1119ACA465EE70FAA04990698FFF758
:10460000AFFA00289ED1CA46FFF7C0BBF48800006D
:10461000E48800000431166807910122002712E4A3
:104620000798014604310668079100270BE40E68DD
:1046300004310791002791E507990E680A46F7179C
:1046400004320792304639460FE5DBF8580001F096
:104650004DFEBBF80C301AE7029B02930DF1B00B34
:10466000303601230BF8416D05930BE40FAA049932
:104670000698FFF775FA00287FF464AF1099119A35
:10468000481CCA4651E60FAA04990698FFF768FA33
:1046900000287FF457AF1099119A481CCA4648E485
:1046A000002A40F0918001201146CA4641E60FAA37
:1046B00004990698FFF754FA00287FF443AF109846
:1046C000119A0130CA4667E6D346D6E6079E0736FA
:1046D00026F0070202F10801D2E9006707910122E2
:1046E000FFF7B1BB079E073626F00706D6E90001A3
:1046F00006F10802079206460F46B6E4079E073603
:1047000026F0070202F10801D2E9006707910022B2
:10471000FFF799BB079E073626F0070101F1080055
:104720000790D1E9006719E5CB46FFF7ABBB2D2514
:10473000764267EB47078DF837500122FFF788BBB9
:10474000099BB3B911460120CA46F2E5DBF85800CF
:1047500001F0CCFD4FF0FF330393FFF750BB0FAADE
:1047600004990698FFF7FCF900287FF4EBAE119A44
:10477000A9E60EAB02221C931D920120CA46D0E589
:104780000FAA04990698FFF7EBF900287FF4DAAE38
:104790001099119A481CCA46A4E5079A0399136810
:1047A000CD170846043229460792C3E90001FFF7F6
:1047B00054BA58460796029302F042FF002405902F
:1047C0009DF83750FFF75EBB0FAA04990698FFF7D4
:1047D000C7F900287FF4B6AE1099119A481CCA4652
:1047E000A7E51099119A204E0131FFF790BB062CD6
:1047F00028BF0624059407960194DFF870B0D5E42D
:104800001098194E013003E605949DF8375007962D
:1048100002930446FFF736BB8646FFF7CEBB0698E9
:104820000FAA5946FFF79CF900283FF424AE24E66E
:10483000079998F801200C68043144EAE474B846FA
:104840000791FFF73FBA8DF837503CE48DF83750A9
:1048500021E58DF83750FFF7F4BB8DF8375091E420
:104860008DF8375069E400BFE4880000B888000084
:104870002DE9F0410C46ADF58D6D8989666EE589AF
:10488000199621F002010646E069ADF80C101746B2
:104890004FF48061626AADF80E5098461AAD00235D
:1048A000079016A809920693009504950291059128
:1048B00001F016FD43463A4669463046FFF790F947
:1048C000051E07DB3046694601F0E8F8002818BFEE
:1048D0004FF0FF35BDF80C305B0603D5A38943F0DC
:1048E0004003A381169801F0FDFC28460DF58D6D5F
:1048F000BDE8F08138B5304B1B6805460C4613B156
:104900009A6B002A38D0B4F90C2093B218070CD552
:104910002069A8B113F001021ED0636900225B4236
:10492000A361A260F0B1002038BDD9063CD558077C
:1049300026D4206942F00803A3819BB20028E9D164
:1049400003F42072B2F5007FE4D02846214601F03E
:10495000FDFCA3892069DDE7990758BF6269A26061
:104960000028E0D1B4F90C301A06DDD543F040033D
:10497000A3814FF0FF3038BD184601F0E7F8C2E7D9
:10498000216B51B104F14003994204D0284601F053
:1049900003FAB4F90C200023236300232069636029
:1049A00022F024022060C5E742F0400209232B6078
:1049B0004FF0FF30A28138BD34000020024B13B10C
:1049C000024800F005B8704700000000BD5B000021
:1049D000002301461A46184602F0C4BF02690B695B
:1049E000934200F38D802DE9F04F03F1FF3801F180
:1049F000140700F1140B57F828205BF828304FEA11
:104A0000880483B00132B3FBF2F90BEB040300948A
:104A100007EB040A0193B9F1000F39D000252E46A7
:104A2000BC46DE465CF8044BDEF80030A2B209FB5F
:104A30000255220C2C0C09FB0242ADB2751B96B23A
:104A4000C6EB134615FA83F306EB23469BB243EA03
:104A50000643E2454FEA12454EF8043B4FEA26462C
:104A6000E0D2009B5BF8033093B9019C231F9B4568
:104A70000CD254F8043C4BB9A4F1080302E01A68C4
:104A8000043B1AB99B4508F1FF38F8D3C0F81080F1
:104A9000044602F0CDFA00282EDB09F101095D463B
:104AA000002357F8041B28688AB29A1A0B0C12FAD2
:104AB00080F2C3EB104303EB224392B242EA03427B
:104AC000BA4545F8042B4FEA2343EAD25BF8282085
:104AD0000BEB880382B91A1F93450BD253F8042CB1
:104AE00042B9083B02E01A68043B1AB99B4508F139
:104AF000FF38F8D3C4F81080484603B0BDE8F08F03
:104B000000207047000000002DE9F04F016C9BB0C1
:104B10000446279E92469B4641B1426C4A6001235F
:104B200093408B6002F0ACF800232364BBF1000FCC
:104B30005D4635DB002333609D4BAB4315D05046BB
:104B400059460022002303F085FC804600282DD022
:104B5000269A01231360289B002B00F0BD80954806
:104B6000186001381BB0BDE8F08F269A42F20F732F
:104B70001360BAF1000F0DD1C5F3130555B9289B89
:104B80008D48002BEED000F10803289A13601BB06B
:104B9000BDE8F08F289B8948002BE3D0C31CF4E7C5
:104BA00001232BF000453360AB46C5E718AA19ABCB
:104BB0000192009352465B46204602F0D9FA2B0D33
:104BC000814671D0CBF3130242F07F51189FCDF88C
:104BD00050805046A3F2FF3641F440110022784B3A
:104BE00003F01CF86CA3D3E9002303F0CBF96CA30A
:104BF000D3E9002303F014F8CDE90201304603F0B5
:104C00005BF969A3D3E9002303F0BCF902460B4624
:104C1000DDE9020103F004F8CDE9040103F062FCD0
:104C2000002202900023DDE9040103F01DFC0028AE
:104C300040F07381029D162D00F25D81614B03EB04
:104C4000C503D3E9000152465B4603F02BFC002864
:104C500000F0C5816B1E029300230E93BF1B7B1EC9
:104C6000069300F1548100230893029B002BC0F2AD
:104C70004581069A0D9311461944002306910C9321
:104C8000249B092B2AD8052B40F35B86043B2493F5
:104C90000025249B023B032B00F24286DFE813F041
:104CA000D403C902DF036104189F199E3E4406F233
:104CB0003243202B40F38E81C3F1400306F21240B1
:104CC0009D402AFA00F0284303F0E6F80123013E54
:104CD000A1F1F871149381E73B4843E70021616437
:104CE0002046259101F0A6FF4FF0FF330A93259A45
:104CF0000F9301230490206424920B93199B002BA3
:104D0000C0F2D980029A0E2A00F3D5802D4B03EB16
:104D1000C203D3E90023CDE90823259B002BC0F271
:104D2000BA83DDE9085650462A463346594603F011
:104D300053FA03F0D7FB804603F0BEF82A46334609
:104D400003F020F90B4602465946504602F066FF32
:104D5000049D08F130032B700A9B012B06460F4679
:104D600005F1010568D00022184B03F00BF9002271
:104D7000002306460F4603F06DFB002840F08880B4
:104D8000CDF82C904FF0000ADFF840B00C94DDE92C
:104D9000088928E0AFF3008061436F63A787D23FA3
:104DA000B3C8608B288AC63FFB799F501344D33F1A
:104DB0000000F07FC1880000048900001089000015
:104DC0000000F83F50890000C08800000000244027
:104DD00003F0D8F80022002306460F4603F03AFB02
:104DE000002840F0C18342464B463046394603F026
:104DF000F3F903F077FB044603F05EF842464B46B6
:104E000003F0C0F802460B463046394602F006FF72
:104E100004F1300E049E05F801EBA5EB060E0A9E88
:104E2000B645CDE9060152465B46D1D1A046DDF834
:104E30002C900C9C06460F4632463B46304639467F
:104E400002F0EEFE06460F4602460B46DDE908017B
:104E500003F00AFB48B932463B46DDE9080103F09E
:104E6000F9FAA8B118F0010F12D015F8018C049AC4
:104E70006B1E04E09A4200F0018413F8018DB8F132
:104E8000390F03F10105F5D008F1010883F800801E
:104E90004946204601F0F4FE0022029B2A70269A21
:104EA00001331360289B002B00F09E8304981D6043
:104EB0001BB0BDE8F08F0B9A002A3ED0249A012A3D
:104EC00040F311830A9B0C9A5F1EBA42C0F28F8393
:104ED000D71B0A9B002BC0F28B84089D0A9B089A63
:104EE0001A440892069A01211A442046069201F0BB
:104EF00061FF064624E001230E93AFE6089A029B69
:104F0000D21A5B420C93002308920D93B8E6C7F1C6
:104F10000103089300230693A7E6029D284602F0AA
:104F2000CBFF02460B46DDE9040103F093FA0028AB
:104F30007FF480AE6B1E02937CE60C9F089D0B9E57
:104F4000002D0CDD069900290B4608DDA942089AC0
:104F5000A8BF2B46D21AED1ACB1A089206930C9BC7
:104F6000D3B10B9B002B00F0B782002F10DD314630
:104F70003A46204601F0BAFF4A4601460646204618
:104F800001F022FF49468046204601F079FEC146E5
:104F90000C9BDA1B40F0A1820121204601F00AFFA0
:104FA0000D9B002B80461CDD01461A46204601F071
:104FB0009DFF249B012B804640F3548200230C93D9
:104FC000D8F8103008EB8303186901F0A3FEC0F194
:104FD000200010E0C3F120050AFA05F074E60E90F7
:104FE0003CE6249B012B40F3878200230C930D9B0E
:104FF0000120002BE4D1069A104410F01F0000F0AD
:10500000A180C0F12003042B40F39E84089BC0F1D3
:105010001C00034408931346034405440693089B6D
:10502000002B05DD49461A46204601F0AFFF8146B8
:10503000069B002B05DD41461A46204601F0A6FFDF
:1050400080460E9B002B40F086800A9B002B40F38D
:1050500066820B9B002B00F09880002D05DD314609
:105060002A46204601F092FF06460C9B002B40F09A
:10507000378306960A9B049ADDF818B0013BD318D3
:105080000B930AF001030C931746C246514648465B
:10509000FFF7A4FC31460546484601F0C9FF5A46D1
:1050A0000A905146204601F0DFFFC268804605F1B4
:1050B0003003002A40F02B8201464846089301F055
:1050C000B7FF41460690204601F0DAFD069A089B9C
:1050D00032B9249921B90C9A002A00F0EF83249A5E
:1050E0000A990029C0F29F8205D1249919B90C9917
:1050F000002900F09882002A00F306830B9A3B7087
:1051000007F101089742454600F00C834946002309
:105110000A22204601F0BEFD5E45814631464FF031
:1051200000034FF00A02204600F0EB8101F0B2FDCF
:105130005946064600230A22204601F0ABFD4746A9
:105140008346A3E71C20089B03440893069B034463
:105150000544069363E74146484601F069FF00288D
:10516000BFF673AF029F494600230A222046013F43
:10517000029701F08FFD0B9B8146002B40F0B68318
:105180000F9B002B40F3BF830A93DDF810B00A9FFA
:105190005D4602E001F07EFD814641464846FFF74C
:1051A0001DFC00F1300A05F801ABA5EB0B03BB4277
:1051B0004FF00A024FF0000349462046EADB049B09
:1051C0000A9A012AACBF9B1801331D464FF0000B11
:1051D00049460122204601F0D9FE4146814601F0B0
:1051E00027FF002840F33D8215F8012C04996B1E1F
:1051F00004E08B4200F0AE8113F8012D392A03F14F
:105200000105F6D001321A704146204601F038FD02
:10521000002E3FF43DAEBBF1000F05D0B34503D0E7
:105220005946204601F02CFD3146204601F028FD6C
:105230002EE600230B93029B259A13440F93013310
:10524000012B1F461E460A93B8BF01270021172FC6
:1052500061640AD9012204235B0003F11400874230
:10526000114602F10102F7D26164204601F0E2FC2E
:105270000E2E049020643FF641AD002D3FF43EAD6C
:1052800002990029CDE910AB40F30282B84B01F03E
:105290000F020D1103EBC203E906D3E9006740F1E9
:1052A000AE81B44B50465946D3E9082302F094FF2F
:1052B000CDE9120105F00F054FF0030A8DB1DFF8BB
:1052C000B482EA0709D530463946D8E9002302F00E
:1052D00059FE0AF1010A06460F466D1008F108084A
:1052E000EFD13B463246DDE9120102F075FF074679
:1052F00088460E9B43B100229F4B3846414603F03F
:10530000B3F8002840F08682504602F0D5FD3A46B8
:10531000434602F037FE994B002202F081FC0A9BC3
:105320000546A1F15076002B00F03E81029B1593BB
:105330000A9B12930B9B002B00F0FA81129A8C4B64
:105340008F4903EBC20353E90223002002F044FF1C
:105350002A46334602F062FC82468B463846414676
:1053600003F0C0F8054602F0A7FD02460B4638469A
:10537000414602F053FC30355FFA85F8049D06463D
:105380000F4685F8008002460B46504659460135C7
:1053900003F088F8002854D132463B460020764975
:1053A00002F03CFC02460B465046594603F07AF8A0
:1053B000002840F07082129A012A00F01181129B9D
:1053C000049ACDF84890134499460DE000206A49AC
:1053D00002F024FC52465B4603F046F8002840F0F9
:1053E00058824D4500F0FA80504659460022654BE0
:1053F00002F0C8FD0022634B82468B463046394698
:1054000002F0C0FD0F46064603F06CF8804602F03D
:1054100053FD02460B463046394602F0FFFB08F1C9
:1054200030085FFA88F852465B4605F8018B06465D
:105430000F4603F019F832463B460028C6D0DDF887
:105440004890159B029323E500230B93259B002B8B
:1054500040F3DC801F461E460F930A93F6E60123B5
:105460000B93F3E7BAF1000F7FF4A8ADCBF313036E
:10547000002B7FF4BAAD2BF000473F0D3F05002F06
:1054800000F00D82089B01330893069B01330693BD
:1054900001230C93ABE50A9B002B3FF742AC40F095
:1054A00021820022384BDDE9080102F06BFD5246F3
:1054B0005B4602F0EDFFDDF828804646002841D02B
:1054C000259B049DDB4302934146204601F0D8FB17
:1054D000002E3FF4DDACA7E60C9A4946204601F0C9
:1054E00005FD814658E5149A002A00F0878103F2F1
:1054F00033430C9F089DF2E4BAF1000F7FF475ADC1
:10550000B4E701F0C7FB474606468346BEE50146C1
:105510002046069301F0B4FB0122069BE0E5249BA4
:10552000022B7FF796AD0A9B002BC9D1414605227D
:10553000204601F0AFFB01468046484601F078FD69
:105540000028BDDD029A04993123013202920B70CA
:105550004D1CB9E7029A01320292049A312313706A
:1055600052E601230B9366E6DDF82C900C9C8FE449
:1055700050890000288900000000F03F00001C4016
:105580000000E03F0000244000001440504602F0BC
:1055900093FC3A46434602F0F5FC0022C14B02F070
:1055A0003FFB0546A1F1507641460022BE4B3846EE
:1055B00002F034FB2A46334682468B4602F072FFE5
:1055C0008046002840F010812A4606F100435046EC
:1055D000594602F049FF18B1464671E7DDF8489098
:1055E000DDE910ABFFF78ABB0498FFF7BBBA0C9B51
:1055F0000D9A0C97FB1A1A440D92002769E4DDE915
:1056000010234FF0020ACDE9122357E600210123AF
:1056100061642046259301F00DFB259B04902064D6
:105620000A930F9329E6002AD046CDF818B09A467F
:1056300011DD49460122204601F0A8FC4146814681
:1056400001F0F6FC002840F34681BAF1390F00F072
:10565000068105F1310AB34687F800A07D1C069E3D
:10566000D2E504D11AF0010F01D0BDE5154615F8B9
:10567000013C302B05F1FF32F8D0C5E5049930220A
:105680000A70029A15F8018C01320292FFF7FCBBF6
:1056900000F0BB80029B5D42844B05F00F0203EBE0
:1056A000C203D3E90023DDE9100102F06BFC2D11E8
:1056B0000746884600F02C817D4E4FF0020AEB072A
:1056C00009D538464146D6E9002302F05BFC0AF1D1
:1056D000010A074688466D1006F10806EFD108E674
:1056E0007168204601F0A6FA336902339A00054634
:1056F00006F10C010C3001F093F9294601222046F5
:1057000001F044FC0690B5E4392BCDF818B0D04632
:1057100000F0A58003F1010AB34687F800A07D1CC4
:10572000069E71E55A46D046B3469A4616464FE560
:10573000129B5E4901EBC3012A46334651E902013F
:1057400002F020FCCDE916013846414602F0CAFEBF
:10575000054602F0B1FB0B4602464146384602F0D0
:105760005DFA129B0F4604993035012B0D700646E9
:1057700001F1010526D0129B049ADFF83CB1CDF867
:10578000489013444FF0000A994652465B46304613
:10579000394602F0F7FB0F46064602F0A3FE8046AC
:1057A00002F08AFB08F1300802460B4630463946C3
:1057B00002F034FA05F8018B4D4506460F46E4D158
:1057C000DDF848903B4B0022DDE9160102F028FA93
:1057D00032463B4602F048FE002846D0159B029315
:1057E00015F8018CFFF743BB4FF000084646A9E6C9
:1057F000089B0A9A9D1A0023FFF771BB189B0C9F08
:10580000089DC3F13603FFF76ABBDDE910784FF05E
:10581000020A6EE50A9B002B3FF4B8AE0F9B002BEB
:105820007FF7DEAE0022244B3846414602F0AAFB49
:10583000074688460AF1010002F03EFB3A4643461D
:1058400002F0A0FB0022174B02F0EAF9029A0F9B2C
:105850001293013A0546A1F1507615926AE5392274
:10586000B3463A70069E7D1CC0E4DDE91623002095
:10587000104902F0D3F932463B4602F013FE08B954
:10588000AEE6154615F8013C302B05F1FF32F8D095
:10589000D7E5DDF84890159B0293FFF7E8BA0C971F
:1058A000FFF7A5BB00001C40000014405089000019
:1058B000288900000000E03F00002440392BCDF88B
:1058C00018B0D046DDF828B09A46C8D0BBF1000F1A
:1058D0003FF7BFAEBFE67FF4BEAE1AF0010F3FF454
:1058E000BAAEB2E64FF000084646E9E5314600237D
:1058F0000A22204601F0CEF90F9B002B06460ADD56
:105900000A93FFF7AABB249B022B23DC0F9B3BE4EB
:105910004FF0020AEDE4249B022B1BDC0F9BEFE708
:10592000002565642946204601F084F94FF0FF33D5
:105930000A930F9301230490259520640B93FFF79E
:10594000DDB90125FFF7A5B93FF469ABC0F13C0013
:10595000FFF7F9BB0F9B0A93E5E500BFB1F90C30E7
:105960009AB22DE9F0410D46110780463AD46A6893
:1059700043F40063002AAB816FDDAC6A002C49D090
:1059800000229BB2D8F80060C8F8002013F48052BF
:1059900067D02A6D5F0705D569682B6B521A0BB16A
:1059A000EB6BD21A0023E9694046A047441C3CD067
:1059B000B5F90C302A692A6023F400630022AB8118
:1059C000DB046A6047D4296BC8F8006011B305F1A5
:1059D0004003994202D0404600F0DEF900202863DF
:1059E000BDE8F0812E69AEB12C682E6091070CBF26
:1059F0006B690023A41BAB600AE0234632466F6A42
:105A0000E9694046B8470028A4EB0004064404DDD9
:105A1000002CF2DC0020BDE8F081AB8943F04003AC
:105A2000AB814FF0FF30BDE8F081D8F800401D2C6D
:105A3000F3D8194BE340DB4313F00103EDD1B5F983
:105A40000C206B6022F400632969AB81DA042960C1
:105A5000B9D5002CB7D12865B5E7EA6B002A8CDCF4
:105A6000D8E70123E9694046A047431C024602D01B
:105A7000AB89AC6A8EE7D8F80030002BF8D01D2B2C
:105A800001D0162B02D1C8F80060C3E7AB8943F000
:105A90004003AB81BDE8F0810100402038B50D46E0
:105AA000044608B1836BBBB1B5F90C0088B16B6ECD
:105AB000DB0701D4810517D520462946FFF74EFFA5
:105AC0006B6EDA07044602D4AB899B0507D52046E6
:105AD00038BD0446204638BD00F038F8E4E7A86D2C
