:10000000981400207D4E00001D280000754E000051
:10001000754E0000754E0000754E00000000000097
:10002000000000000000000000000000754E00000D
:10003000754E000000000000754E000015550000D0
:10004000754E00006D3500008135000095350000CB
:10005000A9350000BD350000D1350000E5350000B0
:10006000F93500000D36000021360000353600005D
:10007000493600005D36000071360000853600000C
:1000800099360000754E0000754E0000754E000058
:10009000754E0000754E0000754E0000754E000054
:1000A000754E00006D2B0000812B0000992B000085
:1000B000B12B0000C92B0000DD2B0000F52B000048
:1000C0000D2C0000252C0000392C0000512C0000C4
:1000D000692C0000754E0000754E0000754E000042
:1000E000754E0000754E0000754E0000754E000004
:1000F000754E0000312800004528000059280000F6
:100100006D2800008128000095280000A928000023
:10011000BD280000754E0000754E0000754E0000B1
:10012000754E0000754E0000754E0000754E0000C3
:10013000754E0000C1480000754E0000D94800000F
:10014000754E0000B94F0000754E0000754E00005E
:10015000754E0000754E0000754E0000754E000093
:10016000754E0000754E0000754E0000754E000083
:10017000754E0000F148000009490000713400008C
:1001800010B5054C237833B9044B13B10448AFF3D1
:1001900000800123237010BD5002002000000000E9
:1001A000289700000C4B43B10C480D4910B5AFF334
:1001B00000800C48036823B910BD0A48036833B9AE
:1001C0007047094B002BF7D0BDE810401847064B8D
:1001D000002BF5D0184700BF000000002897000052
:1001E00054020020289700000000000080B483B073
:1001F00000AFEFF310837B607B68002B0CBF012303
:100200000023DBB23B6072B6BFF35F8F044B00226A
:100210001A703B6818460C37BD4680BC704700BF5B
:100220007400002080B483B000AF78607B68002B3E
:1002300014BF01230023DBB218460C37BD4680BC37
:100240007047000080B582B000AF78607868074BD7
:1002500098470346002B05D0054B01221A70BFF3C7
:100260005F8F62B600BF0837BD4680BD2502000023
:100270007400002080B582B000AF0346FB71FB79AB
:10028000062B23D801A252F823F000BFA9020000D8
:10029000AF020000B5020000BB020000C102000076
:1002A000C7020000CD0200000B4B98470FE00B4B3C
:1002B00098470CE00A4B984709E00A4B984706E03C
:1002C000094B984703E0094B984700E000BF00BF87
:1002D0000837BD4680BD00BF250900006109000048
:1002E0009D0900001D0A00005D0A0000DD090000F4
:1002F00080B483B000AF0346FB71FB79062B4FD867
:1003000001A252F823F000BF2503000039030000CA
:100310004D03000061030000750300008903000025
:100320009D030000214B5B6903F00103002B14BF08
:1003300001230023DBB234E01D4B5B6903F00103B2
:10034000002B14BF01230023DBB22AE0184B5B6AA9
:1003500003F00103002B14BF01230023DBB220E0D4
:10036000124B1B6D03F00103002B14BF012300236C
:10037000DBB216E00D4B9B6C03F00103002B14BFA6
:1003800001230023DBB20CE0094B9B6D03F001035A
:10039000002B14BF01230023DBB202E0012300E0A5
:1003A000002318460C37BD4680BC704700080E403D
:1003B00000040F4080B582B000AF0346FB7100BF60
:1003C000FB791846054B9847034683F00103DBB2DF
:1003D000002BF5D100BF0837BD4680BDF1020000FB
:1003E00080B483B000AF786039607B6800221A6007
:1003F00000BF0C37BD4680BC704780B483B000AFEF
:1004000078600B46FB707B681B6823F4F852FB781E
:100410001B0203F4F8531A437B681A6000BF0C37C1
:10042000BD4680BC704780B483B000AF786039604F
:100430007B681A684FF6FD7313407A6813603B6857
:10044000012B0FD97B681B6843F002027B681A609E
:100450007B681A683B6801335B08013B1B041A4345
:100460007B681A6000BF0C37BD4680BC7047000037
:1004700080B483B000AF7860396007497B681B683F
:1004800043F001023B681C339B000B445A6000BFE1
:100490000C37BD4680BC704700080E4080B483B066
:1004A00000AF78600B467B8013463B807B881B0443
:1004B00003F4F8123B88DBB21A437B68DA6000BFB2
:1004C0000C37BD4680BC704780B483B000AF786005
:1004D00039603B68174A934203D87B6803221A7637
:1004E00012E03B68144A934203D87B6802221A76D2
:1004F0000AE03B68114A934203D87B6801221A76CE
:1005000002E07B6800221A767B685B6823F4403245
:100510007B685A607B685A687B681B7E1B0403F407
:1005200040331A437B685A6000BF0C37BD4680BC1D
:10053000704700BF7FC3C901BF3B47037F778E066B
:1005400080B584B000AFF860084611461A460346ED
:10055000FB720B463B811346FB80FB68002118466B
:100560001B4B9847FB68FA7A11461846194B984777
:10057000FB683A8911461846174B9847174B0122DA
:100580001A6400BF154B5B6903F00803002BF9D018
:10059000124B9A6AFB685A60FB685B6843F0020280
:1005A000FB685A600E49F8680E4B9847FA88FB685A
:1005B0009A60FB6800225A6104220421F8680A4B01
:1005C0009847FB6800221A6100BF1037BD4680BD06
:1005D000E1030000FB0300002704000000080E40B8
:1005E000006CDC02C90400009D04000080B483B0EC
:1005F00000AF7860064B5B6903F00403002B14BF67
:1006000001230023DBB218460C37BD4680BC70477F
:1006100000080E4080B582B000AF0346FB71FB7945
:100620000D2B5FD801A252F823F000BFE5060000B1
:1006300065060000E506000085060000A50600002E
:10064000E5060000E5060000E5060000E5060000FE
:10065000E5060000E5060000E5060000E5060000EE
:10066000C50600000120264B9847034683F001038E
:10067000DBB2002B38D00120224B98470120224BBF
:10068000984731E000201E4B9847034683F0010352
:10069000DBB2002B2AD000201A4B984700201A4BBF
:1006A000984723E00320164B9847034683F0010345
:1006B000DBB2002B1CD00320124B98470320124BB7
:1006C000984715E002200E4B9847034683F001033C
:1006D000DBB2002B0ED002200A4B984702200A4BB7
:1006E000984707E000BF06E000BF04E000BF02E05B
:1006F00000BF00E000BF00BF0837BD4680BD00BF9F
:10070000F102000075020000B503000080B588B05A
:1007100000AF786039607B6800211846314B9847FC
:10072000314B9847F861314B314A9A612F4B012286
:100730009A62F8692F4B984700BF2C4B5B6903F016
:100740000803002BF9D0284B9847B861274B2A4A59
:100750009A61264A7B68DB685363B869254B9847E2
:1007600000BF224B5B6903F00803002BF9D01E4B3E
:10077000984778611D4B214A9A611C4A7B689B68A7
:10078000136378691B4B984700BF184B5B6903F0F4
:100790000803002BF9D0144B98473861134B184AC3
:1007A0009A61124A7B681B6993633869114B9847B9
:1007B00000BF0E4B5B6903F00803002BF9D00A4B16
:1007C0009847F860094B0A4A9A61084A7B685B6857
:1007D00043F001039362F868064B984700BF203747
:1007E000BD4680BD71040000ED01000000080E4010
:1007F000280000AA45020000340000AA300000AA28
:10080000380000AA90B58BB000AF78601D4B9B6A92
:1008100003F00203002B0BD01A4B9B6A03F0010379
:10082000002B05D07868184B98470346002B23D13E
:10083000164B1B78002B21D17B68002B00D01EE0CB
:100840000120134B984707F10C004FF4B7630122C6
:100850000121104CA04707F10C03796818460E4B94
:10086000984700BF7868084B9847034683F0010318
:10087000DBB2002BF6D102E000BF00E000BF2C3756
:10088000BD4690BD00080E40ED0500006C02002042
:1008900015060000410500000D07000080B483B07C
:1008A00000AFEFF310837B607B68002B0CBF01234C
:1008B0000023DBB23B6072B6BFF35F8F044B0022B4
:1008C0001A703B6818460C37BD4680BC704700BFA5
:1008D0007400002080B483B000AF78607B68002B88
:1008E00014BF01230023DBB218460C37BD4680BC81
:1008F0007047000080B582B000AF78607868074B21
:1009000098470346002B05D0054B01221A70BFF310
:100910005F8F62B600BF0837BD4680BDD5080000B6
:100920007400002080B582B000AF084B9847786013
:10093000074B084A9A61064B074A1A627868074BC8
:10094000984700BF0837BD4680BD00BF9D08000026
:1009500000080E40200000AA07030100F50800006F
:1009600080B582B000AF084B98477860074B084AC3
:100970009A61064B074A1A627868074B984700BF8E
:100980000837BD4680BD00BF9D08000000040F4031
:10099000200000AA0DA10500F508000080B582B076
:1009A00000AF0A4B98477860094B5B6A3B60084B85
:1009B000084A9A61064A3B6843F005035362786827
:1009C000054B984700BF0837BD4680BD9D08000015
:1009D00000040F40240000AAF508000080B582B092
:1009E00000AF0A4B98477860094B9B6D3B60084B02
:1009F000084A9A61064A3B6843F0010393657868A8
:100A0000054B984700BF0837BD4680BD9D080000D4
:100A100000040F40580000AAF508000080B582B01D
:100A200000AF0A4B98477860094B1B6D3B60084B41
:100A3000084A9A61064A3B6843F0010313657868E7
:100A4000054B984700BF0837BD4680BD9D08000094
:100A500000080E40500000AAF508000080B582B0E2
:100A600000AF0C4B984778600B4B9B6C3B603B682E
:100A700023F440733B60084B084A9A61064A3B687E
:100A800043F0010393647868054B984700BF08372B
:100A9000BD4680BD9D08000000080E40480000AA29
:100AA000F508000080B483B000AFEFF310837B60E3
:100AB0007B68002B0CBF01230023DBB23B6072B6C6
:100AC000BFF35F8F044B00221A703B6818460C3747
:100AD000BD4680BC704700BF7400002080B483B066
:100AE00000AF78607B68002B14BF01230023DBB2CA
:100AF00018460C37BD4680BC7047000080B582B0F8
:100B000000AF78607868074B98470346002B05D004
:100B1000054B01221A70BFF35F8F62B600BF083722
:100B2000BD4680BDDD0A00007400002080B483B0A3
:100B300000AF0346FB71FB790D2B2BD801A252F8B5
:100B400023F000BF7D0B0000810B0000950B00001F
:100B5000870B00008B0B0000950B0000950B00002D
:100B6000950B0000950B0000950B0000950B000005
:100B7000950B0000950B00008F0B0000084B0AE05E
:100B80004FF4004307E0074B05E0074B03E04FF449
:100B9000004300E0002318460C37BD4680BC704778
:100BA00038C10100001BB70000B4C40480B500AF19
:100BB0000120044B984702464FF4B76303FB02F34E
:100BC000184680BD2D0B000080B500AF024B984742
:100BD0000346184680BD00BFAD0B000080B500AFD6
:100BE000024B98470346184680BD00BFAD0B00007E
:100BF00080B500AF024B98470346184680BD00BF42
:100C0000AD0B000080B500AF024B98470346184675
:100C100080BD00BFAD0B000080B500AF024B984710
:100C20000346184680BD00BFAD0B000080B582B002
:100C300000AF786079680120024B984700BF083701
:100C4000BD4680BD410D000080B582B000AF786028
:100C500079680120024B984700BF0837BD4680BD28
:100C6000A90D000080B582B000AF786079680420DB
:100C7000024B984700BF0837BD4680BD410D0000BC
:100C800080B582B000AF786079680420024B984745
:100C900000BF0837BD4680BDA90D000080B582B0F9
:100CA00000AF786079680520024B984700BF08378D
:100CB000BD4680BD410D000080B582B000AF7860B8
:100CC00079680520024B984700BF0837BD4680BDB4
:100CD000A90D000080B485B000AF7860084B1B6C94
:100CE000FB60FA687B681343FB60054B054A9A6515
:100CF000034AFB68136400BF1437BD4680BC7047CD
:100D000000000E40400000AA80B485B000AF7860BB
:100D1000094B1B6CFB607B68DB43FA681340FB608C
:100D2000054B064A9A65044AFB68136400BF1437F2
:100D3000BD4680BC704700BF00000E40400000AAC6
:100D400080B584B000AF78603960134B9847F86085
:100D50007B689A00114B13441B68BB6001223B68FF
:100D600002FA03F3BA681343BB600D4A7B68083389
:100D70009B0003F47F7343F02A4393657B689A00DA
:100D8000064B1344BA681A60F868064B984700BFD0
:100D90001037BD4680BD00BFA50A000020000E40F0
:100DA00000000E40FD0A000080B584B000AF7860FE
:100DB0003960134B9847F8607B689A00114B1344D5
:100DC0001B68BB6001223B6802FA03F3DB43BA688D
:100DD0001340BB600C4A7B6808339B0003F47F73AD
:100DE00043F02A4393657B689A00064B1344BA6824
:100DF0001A60F868054B984700BF1037BD4680BDA4
:100E0000A50A000020000E4000000E40FD0A000070
:100E100080B584B000AF78600A4B9847F8600A4B01
:100E20009B6A002B02D10520084B9847F868084BB5
:100E3000984779680220074B984700BF1037BD4696
:100E400080BD00BFA50A000000000E402D0C000070
:100E5000FD0A0000410D000080B584B000AF78604D
:100E600079680220094B9847094B9847F860094B6D
:100E70009B6A002B02D10520074B9847F868074B67
:100E8000984700BF1037BD4680BD00BFA90D0000C8
:100E9000A50A000000000E40490C0000FD0A0000F9
:100EA00080B584B000AF78600A4B9847F8600A4B71
:100EB000DB6A002B02D10620084B9847F868084BE4
:100EC000984779680320074B984700BF1037BD4605
:100ED00080BD00BFA50A000000000E402D0C0000E0
:100EE000FD0A0000410D000080B584B000AF7860BD
:100EF00079680320094B9847094B9847F860094BDC
:100F0000DB6A002B02D10620074B9847F868074B95
:100F1000984700BF1037BD4680BD00BFA90D000037
:100F2000A50A000000000E40490C0000FD0A000068
:100F300080B582B000AF78607B686C4A934200F065
:100F4000C0806A4A934263D8694A934200F0B980EC
:100F5000674A934230D8674A934200F0B280654AAC
:100F6000934214D8644A934200F0AB80624A9342A1
:100F700004D8B3F1402F00F0A480B2E05F4A93425E
:100F800000F09F805E4A934200F09B80A9E05D4A9A
:100F9000934200F096805B4A934204D85A4A9342A7
:100FA00000F08F809DE0594A934200F08A80584AB1
:100FB000934200F0868094E0564A934200F081808C
:100FC000544A934210D8544A93427AD0524A934298
:100FD00003D8524A934274D083E0514A934270D06E
:100FE000504A93426DD07CE04F4A934269D04E4ABA
:100FF000934206D84D4A934263D04D4A934260D003
:101000006FE04C4A93425CD04B4A934259D068E01F
:101010004A4A93425DD0494A934227D8484A93426C
:1010200053D0474A934210D8464A934249D0454A42
:10103000934203D8444A934243D052E0434A9342F6
:1010400043D0434A934240D04BE0424A93423CD083
:10105000404A934203D8404A934236D041E03F4A47
:10106000934232D03E4A93422FD03AE03D4A9342D7
:1010700033D03C4A934210D83B4A934229D03A4A53
:10108000934203D8394A934223D02AE0384A934204
:101090001FD0384A93421CD023E0374A93421CD0D9
:1010A000354A934206D8354A934216D0344A934281
:1010B00013D016E0334A93420FD0334A93420CD0F8
:1010C0000FE0324B984703460CE0314B98470346FC
:1010D00008E0304B9847034604E02F4B98470346FF
:1010E00000E0002318460837BD4680BD0080074059
:1010F000008002400080014000800040000001406C
:101100000040014000C001400084014000C4014093
:1011100000400240000004400000034000C00240C4
:101120000080034000C003400080064000000640ED
:101130000040064000C006400000074000000E408E
:1011400000100A400000084000C0074000000A40AC
:1011500000040A4000400A4000200A4000500A40B3
:1011600000600A4000000F4000080E4000040E40DE
:10117000000C0E4000100E40000C0F4000040F4009
:1011800000080F4000100F4000140F40DD0B00005E
:10119000F10B0000050C0000190C000080B582B0B6
:1011A00000AF78607B68A94A934200F04681A74A65
:1011B00093426CD8A64A934200F00A81A44A934213
:1011C00030D8A44A934200F0EC80A24A934214D84B
:1011D000A14A934200F0D3809F4A934204D8B3F1CE
:1011E000402F00F0C880E4E19C4A934200F0CB809D
:1011F0009B4A934200F0CE80DBE19A4A934200F092
:10120000D880984A934204D8974A934200F0CD8000
:10121000CFE1964A934200F0D080954A934200F085
:10122000D080C6E1934A934200F0EF80914A934206
:1012300014D8914A934200F0D9808F4A934204D83F
:101240008E4A934200F0CB80B3E18D4A934200F086
:10125000D4808C4A934200F0D480AAE18A4A934217
:1012600000F0DF80884A934208D8884A934200F011
:10127000D080874A934200F0D0809AE1854A934219
:1012800000F0D380844A934200F0D38091E1834AF6
:10129000934200F06281814A934233D8804A93425C
:1012A00000F03E817E4A934214D87E4A934200F079
:1012B00025817C4A934204D87B4A934200F0C18046
:1012C00077E17A4A934200F01D81794A934200F017
:1012D00020816EE1774A934200F03481754A93424F
:1012E00008D8754A934200F01F81744A934200F077
:1012F00022815EE1724A934200F02B81714A93424F
:1013000035D056E1704A934200F03B816E4A9342D9
:1013100014D86E4A934200F028816C4A934204D854
:101320006B4A934200F01D8143E16A4A934200F008
:101330002081694A934200F020813AE1674A934252
:1013400000F02B81654A934208D8654A934200F029
:101350001C81644A934200F01C812AE1624A934254
:1013600000F01F81614A934200F01F8121E10920B2
:101370005F4B98471DE100205E4B984719E1012023
:101380005C4B984715E102205A4B984755205A4B21
:1013900098470EE10320574B98475520564B9847E6
:1013A00007E10420534B984703E10520514B984730
:1013B000FFE006204F4B9847FBE007204D4B984736
:1013C000F7E008204B4B984704204B4B9847F0E040
:1013D0000920484B98470420474B9847E9E00A20EA
:1013E000444B98470420444B9847E2E00B20414B84
:1013F00098470420404B9847DBE00C203D4B984732
:10140000D7E00D203B4B9847D3E00E20394B98474F
:10141000CFE00F20374B9847CBE01020354B984753
:10142000C7E01120334B9847C3E01220314B984757
:10143000BFE013202F4B9847BBE015202D4B98475A
:10144000B7E016202B4B9847B3E000BF0080074061
:101450000080024000800140008000400000014008
:101460000040014000C001400084014000C4014030
:1014700000400240000004400000034000C0024061
:101480000080034000C0034000800640000006408A
:101490000040064000C006400000074000000E402B
:1014A00000100A400000084000C0074000000A4049
:1014B00000040A4000500A4000200A4000400A4050
:1014C00000600A4000000B4000000F4000080E4082
:1014D00000040E40000C0E4000100E40000C0F40A7
:1014E00000040F4000080F4000100F4000140F4090
:1014F0002D0C0000110E0000D50C000017202E4B03
:10150000984756E001202D4B984700202C4B9847D8
:101510004FE00220294B98470120294B984748E08B
:101520000220274B984744E00020244B9847032093
:10153000234B98473DE00420204B98470420204B44
:10154000984736E003201D4B984705201C4B9847D1
:101550002FE006201A4B98472BE00020194B9847A4
:1015600027E00120174B984723E00220154B9847AE
:101570001FE00320134B98471BE00420114B9847B2
:1015800017E00020104B984713E001200E4B9847BE
:101590000FE002200C4B98470BE003200A4B9847C2
:1015A00007E00420084B984703E00520064B9847C6
:1015B00000BF0837BD4680BD110E00002D0C000095
:1015C000A10E0000650C00009D0C000080B582B0EB
:1015D00000AF78607B68A74A934200F03481A54A47
:1015E00093426CD8A44A934200F00181A24A9342EC
:1015F00030D8A24A934200F0E680A04A934214D821
:101600009F4A934200F0D3809D4A934204D8B3F19D
:10161000402F00F0C880D8E19A4A934200F0CB8076
:10162000994A934200F0CB80CFE1984A934200F070
:10163000D280964A934204D8954A934200F0C780DC
:10164000C3E1944A934200F0CA80934A934200F067
:10165000CA80BAE1914A934200F0DD808F4A9342FA
:1016600014D88F4A934200F0CA808D4A934204D81E
:101670008C4A934200F0BF80A7E18B4A934200F06E
:10168000C2808A4A934200F0C2809EE1884A934217
:1016900000F0CD80864A934208D8864A934200F0F3
:1016A000BE80854A934200F0BE808EE1834A934219
:1016B00000F0C180824A934200F0C18085E1814AF6
:1016C000934200F04C817F4A934233D87E4A934242
:1016D00000F028817C4A934214D87C4A934200F05F
:1016E000BA807A4A934204D8794A934200F0AF8094
:1016F0006BE1784A934200F0B280774A934200F05F
:10170000B28062E1754A934200F01E81734A9342AF
:1017100008D8734A934200F00981724A934200F05C
:101720000C8152E1704A934200F015816F4A934256
:1017300035D04AE16E4A934200F025816C4A9342CB
:1017400014D86C4A934200F012816A4A934204D83A
:10175000694A934200F0078137E1684A934200F0FA
:101760000A81674A934200F00A812EE1654A93425A
:1017700000F01581634A934208D8634A934200F00F
:101780000681624A934200F006811EE1604A93425C
:1017900000F009815F4A934200F0098115E10920B8
:1017A0005D4B984707E100205C4B984703E101201F
:1017B0005A4B9847FFE00220584B9847FBE0032024
:1017C000564B9847F7E00420544B9847F3E0052028
:1017D000524B9847EFE00620504B9847EBE007202C
:1017E0004E4B9847E7E008204C4B9847E3E0092030
:1017F0004A4B9847DFE00A20484B9847DBE00B2034
:10180000464B9847D7E00C20444B9847D3E00D2037
:10181000424B9847CFE00E20404B9847CBE00F203B
:101820003E4B9847C7E010203C4B9847C3E011203F
:101830003A4B9847BFE01220384B9847BBE0132043
:10184000364B9847B7E01520344B9847B3E0162045
:10185000324B9847AFE01720304B9847ABE0002061
:101860002F4B9847A7E002202B4B984701202C4B89
:101870009847A0E0008007400080024000800140BF
:1018800000800040000001400040014000C00140D5
:101890000084014000C401400040024000000440B8
:1018A0000000034000C002400080034000C003402D
:1018B00000800640000006400040064000C0064090
:1018C0000000074000000E4000100A4000000840E1
:1018D00000C0074000000A4000040A4000500A40CF
:1018E00000200A4000400A4000600A4000000B400F
:1018F00000000F4000080E4000040E40000C0E4097
:1019000000100E40000C0F4000040F4000080F4074
:1019100000100F4000140F40490C0000590E000049
:10192000E90E000002202A4B984744E00020294B92
:1019300098470320264B98473DE00420254B9847C5
:101940000420234B984736E00320224B984705207C
:101950001F4B98472FE006201D4B98472BE0002097
:101960001D4B984727E001201B4B984723E002209E
:10197000194B98471FE00320174B98471BE00420A2
:10198000154B984717E00020144B984713E00120AF
:10199000124B98470FE00220104B98470BE00320B2
:1019A0000E4B984707E004200C4B984703E00520B6
:1019B0000A4B984700BF0A4B9A6A40F60C731340D3
:1019C000002B02D17F20074B98470837BD4680BDCA
:1019D000E90E0000490C0000810C0000B90C000069
:1019E00000000E40090D000080B584B000AF7860A3
:1019F000084B9847F860084B4FF02A429A65064A10
:101A00007B681360F868054B984700BF1037BD46E8
:101A100080BD00BFA50A000000000E40FD0A0000C6
:101A200080B586B000AF00237B610023FB742248A1
:101A3000224B9847204B01229A6000BF1E4BDB6867
:101A400003F00103002BF9D000237B610023FB741A
:101A500000201B4B98471B4B9847FB7C1A46796923
:101A6000194B98470320194B9847194BBB607B696A
:101A70007B6001233B603B68002B04D17968B86828
:101A8000144B984704E0144A7968B868134B984798
:101A900000BF0F48124B9847034603F00103002B89
:101AA000F7D0104B9847F860F8680F4B984700BF85
:101AB0001837BD4680BD00BF00040A409D110000DC
:101AC00005080000C90B000001290000E919000009
:101AD00000000F40C922000080A903002522000059
:101AE00069230000A50A0000FD0A000080B584B04B
:101AF00000AF786039600023FB607B68254A934221
:101B00000DD100BF07F10C0319467868224B9847A6
:101B10000346002BF6D1FB68DAB23B681A707B688B
:101B20001E4A93420DD100BF07F10C031946786895
:101B3000194B98470346002BF6D1FB68DAB23B6895
:101B40001A707B68164A93420DD100BF07F10C034F
:101B500019467868104B98470346002BF6D1FB686E
:101B6000DAB23B681A707B680E4A93420DD100BF0F
:101B700007F10C0319467868074B98470346002B7A
:101B8000F6D1FB68DAB23B681A7000BF1037BD4669
:101B900080BD00BF004002406B4B0000008002404F
:101BA00000C002400000034080B584B000AFF86080
:101BB000B9607A6009E0B968F868084B98477B68B3
:101BC000013B7B60BB680133BB607B68002BF2D1BB
:101BD000002318461037BD4680BD00BFED1A000037
:101BE00080B586B000AFF860B9607A6000237B6191
:101BF000FB68002B12D04FF0FF3313E00B4B1B6838
:101C00000B4A1268B96810469847BB680133BB603D
:101C10007B6901337B617B68013B7B607B68002BC8
:101C2000ECDC7B6918461837BD4680BD00040020F7
:101C30000804002080B586B000AFF860B9607A6013
:101C400000237B61FB68012B1ED0FB68022B1BD09D
:101C5000FB68032B18D04FF0FF3319E00E4B1A68C6
:101C60000E4B1868BB68591CB9601B781946904721
:101C70000346002B02DA4FF0FF3309E07B690133A2
:101C80007B617B68013B7B607B68002BE6D17B69D5
:101C900018461837BD4680BD040400200804002003
:101CA00080B500AF0248034B984700BF80BD00BF1E
:101CB00000100E409D11000080B489B000AF786024
:101CC0007B68FB61FB69BB61BB695A09FB697B618E
:101CD0007B6903F01F03012101FA03F33A61FB6002
:101CE0003B69BB60BB6803F5001303F5E1635B026E
:101CF0001A46FB68936000BF2437BD4680BC70471E
:101D000080B48DB000AF786039607B68FB623B685F
:101D1000BB62FB6A7B627B6A5A09FB6A3B623B6A75
:101D200003F01F03012101FA03F3FA61BB61BB6AEF
:101D30007B61FB693B613B6903F5001303F5E163DC
:101D40005B02FB607B6903F00803002B03D0FB6898
:101D5000BA695A6702E0FB68BA699A677B6903F05F
:101D60001003002B04D0FB68BA69C3F8842003E099
:101D7000FB68BA69C3F888207B6903F04003002B35
:101D800004D0FB68BA69C3F8C42003E0FB68BA69F1
:101D9000C3F8C8207B6903F08003002B04D0FB68E4
:101DA000BA69C3F8042103E0FB68BA69C3F80821E3
:101DB0007B6903F00103002B03D0FB68BA695A6109
:101DC00002E0FB68BA699A617B6903F00203002BA9
:101DD00003D0FB68BA695A6202E0FB68BA699A628A
:101DE0007B6903F00403002B03D0FB68BA695A63D4
:101DF00002E0FB68BA699A6300BF3437BD4680BC15
:101E0000704780B495B000AF78600B46FB707B687C
:101E1000FB64FB7887F84B3097F84B30012B2FD1C0
:101E2000FB6C7B647B6C3B643B6C5B09FB63FB6B17
:101E300003F5001303F5E1635B021946FB6CBB631A
:101E4000BB6B03F01F03012202FA03F34B64FB6C2C
:101E50007B637B6B3B633B6B5B09FB62FB6A03F55C
:101E6000001303F5E1635B021946FB6CBB62BB6ABE
:101E700003F01F03012202FA03F3C1F8683132E0D4
:101E800097F84B30002B2ED1FB6C7B627B6A3B6258
:101E90003B6A5B09FB61FB6903F5001303F5E16332
:101EA0005B021946FB6CBB61BB6903F01F03012297
:101EB00002FA03F38B64FB6C7B617B693B613B69DA
:101EC0005B09FB60FB6803F5001303F5E1635B024C
:101ED0001946FB6CBB60BB6803F01F03012202FACA
:101EE00003F3C1F8643100BF5437BD4680BC70476E
:101EF00080B48DB000AF78600B46FB707B68FB62EE
:101F0000FB7887F82B3097F82B30002B17D0FB6A23
:101F10007B627B6A3B623B6A5B09FB61FB6903F5A1
:101F2000001303F5E1635B021946FB6ABB61BB6901
:101F300003F01F03012202FA03F34B6516E0FB6A6C
:101F40007B617B693B613B695B09FB60FB6803F577
:101F5000001303F5E1635B021946FB6ABB60BB68D3
:101F600003F01F03012202FA03F38B6500BF34372D
:101F7000BD4680BC7047000080B588B000AF3B1DF7
:101F80001846234B98473A1D07F118032149184674
:101F9000214B984707F118031846204B9847204BD0
:101FA0009847012147201F4B9847012147201E4B8E
:101FB0009847002158201B4B9847082158201B4B5D
:101FC000984709215820194B98475820184B984793
:101FD00000215A20154B98475A20154B984700214D
:101FE0005B20124B98475B20114B984702212E2013
:101FF0000E4B98472E200E4B984702212F200B4B5B
:1020000098472F200A4B984700BF2037BD4680BD18
:10201000ED4C0000000C0F40314D0000354E00002B
:10202000A11C0000031E0000F11E0000011D0000A5
:10203000B91C000080B584B000AF154B9847182339
:102040003B7100237B710123BB710023FB710023D3
:102050003B7207237B720223BB720223FB720123B4
:102060003B731E237B733B1D18460A4B98470A4B54
:1020700098470020094B98470120084B98470220B9
:10208000064B9847002318461037BD4680BD00BF59
:10209000D12E0000212F0000BD2F0000593000007C
:1020A00090B585B002AF78600023009305237A686D
:1020B00004210220024CA04700BF0C37BD4690BD52
:1020C0002131000080B582B000AF03460A46FB71A3
:1020D0001346BB71FB79012B05D8BA79FB79114600
:1020E0001846064B9847BA79FB7911461846044BB7
:1020F000984700BF0837BD4680BD00BFC53000000F
:102100008132000080B584B000AF78607B68002B1E
:1021100004DA112100201B4B984703E01121002015
:10212000194B98477B68002BB8BF5B427B607B688C
:10213000164A93420DDD7B68A3F5C333A03B7B6059
:102140000D2100200F4B9847092100200D4B984787
:1021500007E00D2100200C4B9847092100200A4B75
:10216000984707F108037A6809491846094B9847C8
:1021700007F108031846084B984700BF1037BD46C3
:1021800080BD00BF81320000753300009F860100D2
:10219000049400001D640000A120000080B483B0FE
:1021A00000AFEFF310837B607B68002B0CBF012333
:1021B0000023DBB23B6072B6BFF35F8F044B00229B
:1021C0001A703B6818460C37BD4680BC704700BF8C
:1021D0007400002080B483B000AF78607B68002B6F
:1021E00014BF01230023DBB218460C37BD4680BC68
:1021F0007047000080B582B000AF78607868074B08
:1022000098470346002B05D0054B01221A70BFF3F7
:102210005F8F62B600BF0837BD4680BDD521000084
:102220007400002080B58AB000AFF860B9607A60B1
:1022300000237B62FB68DB697B627B6A23F003031C
:102240007B62BB6803F003037A6A13437B627B6A99
:1022500043F008037B627B6A43F004037B62164B06
:1022600098473862154B9B68FB61144B1B68BB6138
:10227000124B5B687B61114A7B6853600F4B0522F0
:102280001A60796AF8680E4B98470346FB740B4B4B
:1022900000221A60094A7B695360084AFB6993600F
:1022A000064ABB691360386A064B9847FB7C1846A0
:1022B0002837BD4680BD00BF9D21000010E000E032
:1022C00001000020F521000080B485B000AF7860E7
:1022D00039600023FB607B68DB69FB60FB6823F0EF
:1022E0000303FB603B6803F00303FA681343FB60DE
:1022F000FB6843F00803FB60FB6843F00403FB60EA
:10230000054B064A9A617B68FA68DA6100BF1437A8
:10231000BD4680BC704700BF00000F401C0000AAF3
:1023200080B485B000AF786039607B68DB69FB60A2
:102330003B68002B04D1FB6823F48033FB6003E08F
:10234000FB6843F48033FB60054B064A9A617B6867
:10235000FA68DA6100BF1437BD4680BC704700BF21
:1023600000000F401C0000AA80B483B000AF78606A
:102370007B685B6918460C37BD4680BC704700001F
:1023800080B485B000AF786039607B68DB69FB6042
:10239000FB6823F48073FB60FB6823F40073FB602D
:1023A000FB6823F44053FB60424B434A9A613B680D
:1023B000012B09D17B68FA68DA61404A3F4B1B69FF
:1023C00023F00403136160E03B68022B0DD1FB682E
:1023D00043F48053FB607B68FA68DA61374A374B15
:1023E0001B6923F0040313614FE03B68032B0DD1FD
:1023F000FB6843F40053FB607B68FA68DA612F4A9C
:102400002E4B1B6923F0040313613EE03B68042B51
:102410000DD1FB6843F44053FB607B68FA68DA61D6
:10242000264A264B1B6923F0040313612DE03B6809
:10243000052B09D17B68FA68DA61204A1F4B1B69BA
:1024400043F00403136120E03B68062B0DD1FB68C9
:1024500043F40073FB607B68FA68DA61174A174B34
:102460001B6943F0040313610FE03B68072B1CD189
:10247000FB6843F48073FB607B68FA68DA610F4A9B
:102480000E4B1B6943F00403136100BF0C4B5B69E7
:1024900003F48063002BF9D030BF00BF094B012249
:1024A0001A70BFF35F8F62B600E000BF1437BD46FD
:1024B00080BC704700000F401C0000AA00ED00E047
:1024C00000040F407400002080B483B000AF0346C6
:1024D000FB71084997F907305B09FA7902F01F028E
:1024E000012000FA02F241F8232000BF0C37BD465C
:1024F00080BC704700E100E080B483B000AF0346C9
:10250000FB71094997F907305B09FA7902F01F025C
:10251000012000FA02F2603341F8232000BF0C379B
:10252000BD4680BC704700BF00E100E080B483B0CE
:1025300000AF03463960FB7197F90730002B0BDAC7
:102540000D49FB7903F00F03043B3A68D2B2120144
:10255000D2B20B441A7609E0084997F907303A6875
:10256000D2B21201D2B20B4483F8002300BF0C3761
:10257000BD4680BC704700BF00ED00E000E100E018
:1025800080B483B000AFEFF310837B607B68002BD7
:102590000CBF01230023DBB23B6072B6BFF35F8F39
:1025A000044B00221A703B6818460C37BD4680BCAD
:1025B000704700BF7400002080B483B000AF786023
:1025C0007B68002B14BF01230023DBB218460C37B5
:1025D000BD4680BC7047000080B582B000AF786017
:1025E0007868074B98470346002B05D0054B01221E
:1025F0001A70BFF35F8F62B600BF0837BD4680BD5B
:10260000B92500007400002080B483B000AF78606A
:102610000B46FB70FB78012202FA03F31A467B6833
:102620001A6000BF0C37BD4680BC704780B584B0CF
:1026300000AF0346FB71FB790A4AD35CFF2B00D144
:10264000FEE7094B9847F860FB79064AD25C0132F5
:10265000D1B2044AD154F868044B984700BF1037F0
:10266000BD4680BDF803002081250000D92500006B
:1026700080B485B000AFF8600B467A60FB727B686F
:102680001B78012B07D1FB685B69FA7A012101FAFB
:1026900002F2134307E0FB685B69FA7A012101FA51
:1026A00002F2D2431340FA6853617B685B78012BD6
:1026B00007D1FB689B69FA7A012101FA02F2134300
:1026C00007E0FB689B69FA7A012101FA02F2D24322
:1026D0001340FA6893617B689B78012B07D1FB68F4
:1026E000DB69FA7A012101FA02F2134307E0FB6881
:1026F000DB69FA7A012101FA02F2D2431340FA6847
:10270000D3617B68DB78012B07D1FB681B6AFA7AFF
:10271000012101FA02F2134307E0FB681B6AFA7A0F
:10272000012101FA02F2D2431340FA6813627B6876
:102730001B79012B07D1FB689B6AFA7A012101FA08
:1027400002F2134307E0FB689B6AFA7A012101FA5F
:1027500002F2D2431340FA68936200BF1437BD46B9
:1027600080BC704780B582B000AF78607868044B59
:1027700098470720034B984700BF0837BD4680BDE8
:102780009D1100002D26000080B584B000AFF860D8
:102790007A601A460B46FB721346BB72FB7A0F49EE
:1027A0007A6841F8232097F90A3018460C4B98476D
:1027B00097F90A303A7E114618460A4B984797F91E
:1027C0000A301846084B9847FB7A1946F868074BB9
:1027D000984700BF1037BD4680BD00BF0C040020E5
:1027E000F92400002D250000C9240000092600005E
:1027F00080B582B000AF0346FB71FB79064A52F800
:102800002330002B04D0FB79034A52F82330984739
:1028100000BF0837BD4680BD0C04002080B500AF66
:102820000020024B984700BF80BD00BFF127000089
:1028300080B500AF0120024B984700BF80BD00BFAC
:10284000F127000080B500AF0220024B984700BF7F
:1028500080BD00BFF127000080B500AF0320024B10
:10286000984700BF80BD00BFF127000080B500AFD2
:102870000420024B984700BF80BD00BFF127000035
:1028800080B500AF0520024B984700BF80BD00BF58
:10289000F127000080B500AF0620024B984700BF2B
:1028A00080BD00BFF127000080B500AF0720024BBC
:1028B000984700BF80BD00BFF127000080B500AF82
:1028C0000820024B984700BF80BD00BFF1270000E1
:1028D00080B483B000AF78600849084B1B6823F0D0
:1028E00040027B68002B01D0402300E0002313430B
:1028F0000B6000BF0C37BD4680BC704700000A402B
:1029000080B584B000AFF860B9601346FB71BB6856
:10291000002B32D1FB68234A934215D9FB68224A27
:10292000934208D80120214B98474FF0FF311120E6
:102930001F4B984731E001201C4B98474FF0FF3167
:1029400010201B4B984728E0FB79002B0CD0FB682C
:10295000184A934208D80120144B98474FF0FF3192
:102960001120134B984718E00020104B98474FF068
:10297000FF3111200E4B98470FE0FB680E4A93423F
:1029800003D90120094B984702E00020074B9847E4
:102990004FF0FF311120064B984700BF1037BD465E
:1029A00080BD00BF80A8120100512502D12800007F
:1029B000192A0000001BB70000127A0080B400AF93
:1029C000064B9B6803F00103002B14BF0123002377
:1029D000DBB21846BD4680BC704700BF00000A400D
:1029E00080B500AF00BF054B9847034683F0010355
:1029F000DBB2002BF7D100BF80BD00BFBD290000B6
:102A000080B400AF034B9B6803F00C031846BD462F
:102A100080BC704700000A4080B584B000AF786089
:102A20003960174B1B689847164B5B68FB60FB6867
:102A300023F03F03FB603B68002B0BDB3B681B0272
:102A400023F07F4323F0FF037A68134343F02543C9
:102A5000FB6005E07A68FB68134343F02543FB60A5
:102A6000084AFB685360084B98470246074B1A60B8
:102A7000034B1B68984700BF1037BD4680BD00BFA1
:102A80007800002000000A40012A000070020020A7
:102A900080B485B000AF78607B68FB60FB685B0941
:102AA00000BF18461437BD4680BC704780B485B05F
:102AB00000AF78607B68FB60FB6803F01F030122B6
:102AC00002FA03F300BF18461437BD4680BC7047B6
:102AD00080B586B000AF786039607B685B0203F137
:102AE000804303F561233B613B69D3F8D030FB6041
:102AF00000237B6123E0194A7B6952F83330BB60C5
:102B0000B868174B984702467B689A4214D1B86858
:102B1000144B98470246FB681340002B0CD00F4A19
:102B20007B69DB0013445B68002B05D00B4A7B6993
:102B3000DB0013445B6898477B6901337B610A4B78
:102B40001B687A699A42D6D3FA683B681A403B6997
:102B5000C3F8D82000BF1837BD4680BD74020020DE
:102B6000912A0000AD2A0000A402002080B500AF29
:102B7000FF210020014B984700BF80BDD12A0000F3
:102B800080B500AF4FF47F410020024B984700BF53
:102B900080BD00BFD12A000080B500AF4FF47F0197
:102BA0000020024B984700BF80BD00BFD12A000023
:102BB00080B500AF4FF07F410020024B984700BF27
:102BC00080BD00BFD12A000080B500AFFF210120E9
:102BD000014B984700BF80BDD12A000080B500AFEF
:102BE0004FF47F410120024B984700BF80BD00BFDA
:102BF000D12A000080B500AF4FF47F010120024BC5
:102C0000984700BF80BD00BFD12A000080B500AF4B
:102C10004FF07F410120024B984700BF80BD00BFAD
:102C2000D12A000080B500AFFF210220014B984758
:102C300000BF80BDD12A000080B500AF4FF47F41B6
:102C40000220024B984700BF80BD00BFD12A000080
:102C500080B500AF4FF47F010220024B984700BFC0
:102C600080BD00BFD12A000080B500AF4FF07F418A
:102C70000220024B984700BF80BD00BFD12A000050
:102C800080B483B000AFEFF310837B607B68002BD0
:102C90000CBF01230023DBB23B6072B6BFF35F8F32
:102CA000044B00221A703B6818460C37BD4680BCA6
:102CB000704700BF7400002080B483B000AF78601C
:102CC0007B68002B14BF01230023DBB218460C37AE
:102CD000BD4680BC7047000080B582B000AF786010
:102CE0007868074B98470346002B05D0054B012217
:102CF0001A70BFF35F8F62B600BF0837BD4680BD54
:102D0000B92C00007400002080B582B000AF0346EB
:102D1000FB71FB79062B23D801A252F823F000BFE8
:102D20003D2D0000432D0000492D00004F2D0000D7
:102D3000552D00005B2D0000612D00000B4B9847C6
:102D40000FE00B4B98470CE00A4B984709E00A4B01
:102D5000984706E0094B984703E0094B984700E085
:102D600000BF00BF0837BD4680BD00BF2509000079
:102D7000610900009D0900001D0A00005D0A0000B5
:102D8000DD09000080B483B000AF0346FB71FB791E
:102D9000062B4FD801A252F823F000BFB92D000036
:102DA000CD2D0000E12D0000F52D0000092E0000C2
:102DB0001D2E0000312E0000214B5B6903F0010342
:102DC000002B14BF01230023DBB234E01D4B5B69F1
:102DD00003F00103002B14BF01230023DBB22AE020
:102DE000184B5B6A03F00103002B14BF012300237F
:102DF000DBB220E0124B1B6D03F00103002B14BF6C
:102E000001230023DBB216E00D4B9B6C03F00103A2
:102E1000002B14BF01230023DBB20CE0094B9B6D98
:102E200003F00103002B14BF01230023DBB202E0F7
:102E3000012300E0002318460C37BD4680BC7047D4
:102E400000080E4000040F4080B582B000AF03467A
:102E5000FB7100BFFB791846054B9847034683F08A
:102E60000103DBB2002BF5D100BF0837BD4680BDA2
:102E7000852D000080B400AF034B01221A6100BF12
:102E8000BD4680BC704700BF0000084080B584B0DC
:102E900000AF0346FB71FB790A4AD35CFF2B00D1DC
:102EA000FEE7094B9847F860FB79064AD25C01328D
:102EB000D1B2044AD154F868044B984700BF103788
:102EC000BD4680BDF8030020812C0000D92C0000F5
:102ED00080B500AF0B480C4B984701200B4B98472F
:102EE000034683F00103DBB2002B05D00120084B21
:102EF00098470120074B984700210748074B984700
:102F000000BF80BD000008409D110000852D00001D
:102F1000092D0000492E000000000F402123000071
:102F200080B582B000AF7860224B55221A602149EB
:102F30007B681B7A1B0603F0F8527B68DB791B0465
:102F400003F4F8131A437B689B791B0203F4F853CC
:102F50001A437B685B795B0003F00E0313437A68C6
:102F6000127913438B6013497B681B781B0603F0AF
:102F70007C527B685B78002B01D0012300E00023AA
:102F80001A437B689B78002B01D0002300E00223CA
:102F90001A437B68DB781B0203F4407313434B60D6
:102FA0007B6893F909301846034B984700BF0837F0
:102FB000BD4680BD00000840FD2F000080B500AF79
:102FC00006200C4B98470C4A0B4B5B6823F004031C
:102FD0005360094B02221A60074B4FF480721A604B
:102FE00000BF054BDB6803F01003002BF9D000BFD6
:102FF00080BD00BF8D2E00000000084080B487B067
:1030000000AF0346FB71134B5B683B611F23FB73EF
:103010002023BB733B6923F47C133B61FA79FB7B70
:1030200013405BB27B6197F90730002B04DA97F904
:103030000E307A6913437B6106497B691B0403F4F4
:103040007C123B6913434B6000BF1C37BD4680BCFC
:10305000704700BF0000084080B483B000AF034653
:10306000FB71FB79002B0AD1154B08221A6000BFB7
:10307000134BDB6803F00203002BF9D01AE0FB7955
:10308000012B0AD10E4B20221A6000BF0C4BDB68CB
:1030900003F00403002BF9D00CE0FB79022B09D1DB
:1030A000074B80221A6000BF054BDB6803F0080362
:1030B000002BF9D000BF0C37BD4680BC704700BF65
:1030C0000000084080B483B000AF03460A46FB719D
:1030D0001346BB71BB79002B0CD110490F4B9A6B77
:1030E000FB79012000FA03F31B0203F47063DB4356
:1030F00013408B63BB79012B0BD10849074B9A6BAB
:10310000FB79012000FA03F31B039BB2DB4313405E
:103110008B6300BF0C37BD4680BC70470000084081
:1031200080B485B000AFBA607B600346FB730B468A
:10313000BB731449FB7B5B0003F00602BB7B1B02E5
:1031400003F47C531A433B7E002B01D0012300E0A3
:10315000002313430B6409E0BB681B78002B0BD0E2
:103160000849BB685A1CBA601B784B647B685A1EBE
:103170007A60002BF0D100E000BF00BF1437BD46DD
:1031800080BC7047000008402DE9F04F85B000AFCB
:10319000F8714FF0000A4FF0000BC7E902ABF87965
:1031A000032862D80FF2040E5EF820F0BD31000053
:1031B000E9310000133200003D3200002F4B5B6903
:1031C0004FF00004C7E902342C4B9B694FF0000418
:1031D00099464FF00008D7E9023443EA080344EA6D
:1031E0000904C7E9023440E0244BDB694FF00004D6
:1031F000C7E90234214B1B6A4FF000041E00002572
:10320000D7E9023443EA050344EA0604C7E9023475
:103210002BE01A4B5B6A4FF00004C7E90234174BEE
:103220009B6A4FF000041A000021D7E9023443EAF8
:10323000010344EA0204C7E9023416E00F4AD26AE5
:1032400011464FF00002C7E902120C4A126B1146F8
:103250004FF000020C000023D7E9021243EA0103F9
:1032600044EA0204C7E9023400BFD7E90234184631
:1032700021461437BD46BDE8F08F00BF000008406E
:103280002DE9F04F89B000AF03460A46FB7513469F
:10329000BB75FB7D032B63D8BB7D272B60D8FB7DE3
:1032A0001846324B9847C7E90601B97D4FF0010334
:1032B0004FF00004A1F12000C1F1200204FA01F650
:1032C00003FA00F0064323FA02F2164303FA01F56B
:1032D000D7E9063443EA050344EA0604C7E906349D
:1032E000FB7D032B3CD801A252F823F0FD320000F5
:1032F0001733000031330000493300001C4ABB691A
:1033000053611B4AD7E906342300BB600023FB60EE
:10331000BB68936124E0164ABB69D361144AD7E9BC
:10332000063423003B6000237B603B68136217E098
:103330000F4ABB6953620E4AD7E90634A2464FF0E2
:10334000000B534693620BE0094ABB69D362084AFB
:10335000D7E90634A0464FF000094346136300BF87
:1033600000BF2437BD46BDE8F08F00BF89310000A3
:10337000000008402DE9F04F89B000AF03460A462F
:10338000FB751346BB75FB7D032B67D8BB7D272BD5
:1033900064D8FB7D1846344B9847C7E90601B97DD0
:1033A0004FF001034FF00004A1F12000C1F1200211
:1033B00004FA01F603FA00F0064323FA02F2164378
:1033C00003FA01F56FEA05036FEA0604D7E906126E
:1033D00003EA010304EA0204C7E90634FB7D032B78
:1033E0003CD801A252F823F0F93300001334000056
:1033F0002D340000453400001C4ABB6953611B4A50
:10340000D7E906342300BB600023FB60BB689361EF
:1034100024E0164ABB69D361144AD7E90634230075
:103420003B6000237B603B68136217E00F4ABB6977
:1034300053620E4AD7E90634A2464FF0000B5346BA
:1034400093620BE0094ABB69D362084AD7E90634A4
:10345000A0464FF000094346136300BF00BF243766
:10346000BD46BDE8F08F00BF893100000000084074
:1034700080B500AF054B9847054B1B68002B02D069
:10348000034B1B68984700BF80BD00BF752E00002E
:10349000A802002080B485B000AF0346FB71FB7921
:1034A0000F2B01D90023FB71FB799B0103F18043B2
:1034B00003F52223FB60FB6818461437BD4680BC29
:1034C0007047000080B586B000AF0346FB71FB7902
:1034D0001846154B984778617B69DB693B617B69CE
:1034E000DB6AFB603B6903F00103002B16D0FB682D
:1034F00003F00403002B01D0042310E0FB6803F069
:103500000203002B01D0032309E0FB6803F0010351
:10351000002B01D0022302E0012300E00023184623
:103520001837BD4680BD00BF9534000080B584B01B
:1035300000AF0346FB71FB7918460A4B98470346D8
:10354000FB73FB79084A52F82330002B06D0FB7935
:10355000054A52F82330FA7B1046984700BF1037CF
:10356000BD4680BDC53400003004002080B500AFEA
:103570000020024B984700BF80BD00BF2D350000E2
:1035800080B500AF0120024B984700BF80BD00BF4F
:103590002D35000080B500AF0220024B984700BFD8
:1035A00080BD00BF2D35000080B500AF0320024B69
:1035B000984700BF80BD00BF2D35000080B500AF2B
:1035C0000420024B984700BF80BD00BF2D3500008E
:1035D00080B500AF0520024B984700BF80BD00BFFB
:1035E0002D35000080B500AF0620024B984700BF84
:1035F00080BD00BF2D35000080B500AF0720024B15
:10360000984700BF80BD00BF2D35000080B500AFDA
:103610000820024B984700BF80BD00BF2D35000039
:1036200080B500AF0920024B984700BF80BD00BFA6
:103630002D35000080B500AF0A20024B984700BF2F
:1036400080BD00BF2D35000080B500AF0B20024BC0
:10365000984700BF80BD00BF2D35000080B500AF8A
:103660000C20024B984700BF80BD00BF2D350000E5
:1036700080B500AF0D20024B984700BF80BD00BF52
:103680002D35000080B500AF0E20024B984700BFDB
:1036900080BD00BF2D35000080B500AF0F20024B6C
:1036A000984700BF80BD00BF2D35000080B483B0B7
:1036B00000AF0346FB71084997F907305B09FA79B7
:1036C00002F01F02012000FA02F241F8232000BF9D
:1036D0000C37BD4680BC704700E100E080B483B089
:1036E00000AF0346FB71094997F907305B09FA7986
:1036F00002F01F02012000FA02F2603341F8232099
:1037000000BF0C37BD4680BC704700BF00E100E041
:1037100080B483B000AF03463960FB7197F907307E
:10372000002B0BDA0D49FB7903F00F03043B3A68D9
:10373000D2B21201D2B20B441A7609E0084997F9C5
:1037400007303A68D2B21201D2B20B4483F8002398
:1037500000BF0C37BD4680BC704700BF00ED00E0E5
:1037600000E100E080B483B000AFEFF310837B6032
:103770007B68002B0CBF01230023DBB23B6072B6D9
:10378000BFF35F8F044B00221A703B6818460C375A
:10379000BD4680BC704700BF7400002080B483B079
:1037A00000AF78607B68002B14BF01230023DBB2DD
:1037B00018460C37BD4680BC7047000080B582B00B
:1037C00000AF78607868074B98470346002B05D018
:1037D000054B01221A70BFF35F8F62B600BF083736
:1037E000BD4680BD9D3700007400002080B582B0CA
:1037F00000AF0346FB7172B6BFF35F8F054B00222B
:103800001A70FB7919460448044B984700BF0837E3
:10381000BD4680BD7400002000000F4081230000E1
:1038200080B483B000AF0023FB7106E0FB79084A47
:103830000021D154FB790133FB71FB79062BF5D9BB
:10384000034B0122DA7100BF0C37BD4680BC7047C4
:10385000F803002080B584B000AF0346FB71FB790C
:103860000A4AD35CFF2B00D1FEE7094B9847F8606A
:10387000FB79064AD25C0132D1B2044AD154F868CD
:10388000044B984700BF1037BD4680BDF8030020A9
:1038900065370000BD37000080B584B000AF034637
:1038A000FB71FB790A4AD35C002B00D1FEE7094B80
:1038B0009847F860FB79064AD25C013AD1B2044AD3
:1038C000D154F868044B984700BF1037BD4680BDFF
:1038D000F803002065370000BD37000080B483B0D6
:1038E00000AF0023FB71094B3B6005E03B680133EF
:1038F0003B60FB790133FB713B681B78002BF5D0F3
:10390000FB7918460C37BD4680BC7047F803002091
:1039100080B582B000AF72B6BFF35F8F0B4B002251
:103920001A700B4B98470346FB71FB79002B06D1AD
:10393000064B01221A70BFF35F8F62B603E0FB797A
:103940001846044B98470837BD4680BD74000020D8
:10395000DD380000ED37000080B483B000AF786040
:103960007B680E4A934201D1032312E07B680C4A24
:10397000934201D102230CE07B680A4A934201D1B1
:10398000012306E07B68084A934201D1002300E04E
:10399000002318460C37BD4680BC704700C0074066
:1039A0000080074000C001400080014080B586B023
:1039B00000AF78604FF4FA63BB607868944B984727
:1039C00038617B68DB69FB60924A3B6952F82330BF
:1039D000FA681340FB60FB6803F4A063002B28D057
:1039E000FB6803F48073002B02D06FF0030101E049
:1039F0006FF00101884A3B6913440A461A707B68DC
:103A00001B6923F400427B681A617B68DB6823F43E
:103A100000427B68DA607B684FF0FF32DA627B68D5
:103A20004FF0FF325A627D4A3B69134400221A70FC
:103A3000EDE1FB6803F00103002B00F0BD80784A44
:103A40003B6952F823307A685269D2B21A70744ACC
:103A50003B6952F823305A1C71493B6941F82320D5
:103A6000704A3B6952F823305A1E6E493B6941F84F
:103A700023206C4A3B6952F82330002B40F0C78169
:103A8000664A3B6913441B78DBB2002B7BD0664A45
:103A90003B6952F82330002B75D0644A3B6952F8D9
:103AA00023205F493B6941F823205F4A3B6952F874
:103AB0002330FF2B19D95B4A3B69FF2142F82310C1
:103AC0005A4A3B6952F8233003F1FF0257493B69D8
:103AD00041F82320544A3B6952F82330A3F1FF02F6
:103AE00051493B6941F823200CE04F4A3B6952F8A9
:103AF00023204C493B6941F823204B4A3B69002174
:103B000042F82310484A3B6952F82330002B34D046
:103B10004FF4FA63BB6000BF7B681B6903F400438A
:103B2000002B04D0BB685A1EBA60002BF4D17B680E
:103B3000DB687B617B6923F03F7323F448337B614F
:103B4000394A3B6952F82330FF2B06D97B6943F091
:103B50003F7343F440337B610BE0334A3B6952F8D7
:103B600023301B0403F47F0343F480437A69134337
:103B70007B617B687A691A6149E1284A3B69134491
:103B800000221A7043E17B6801225A62234A3B6992
:103B9000134400221A707B680822DA627B680822CC
:103BA0001A621C4A3B6952F8233043F00802194953
:103BB0003B6941F823202AE1FB6803F00203002B54
:103BC00000F019811A4A3B6952F82330002B31D199
:103BD0007B6802225A62144A3B6952F82330002B58
:103BE00004D10E4A3B69134400221A707B680822F4
:103BF000DA627B6808221A62064A3B6952F823306F
:103C000043F0080203493B6941F82320FFE000BF6D
:103C100059390000F0020020CC02002000030020EF
:103C2000BC020020E0020020340300201403002026
:103C3000D0020020784A3B6952F82330591C76485C
:103C40003A6940F822101B78DBB21A467B689A6109
:103C5000724A3B6952F823305A1E70493B6941F859
:103C600023206E4A3B6952F82330002B40F0CF806E
:103C70006B4A3B6913441B78DBB2002B79D0694A4D
:103C80003B6952F82330002B73D0674A3B6952F8E6
:103C9000232061493B6941F82320624A3B6952F87D
:103CA0002330FF2B19D95D4A3B69FF2142F82310CD
:103CB0005D4A3B6952F8233003F1FF025A493B69E0
:103CC00041F82320574A3B6952F82330A3F1FF0201
:103CD00054493B6941F823200CE0524A3B6952F8B1
:103CE00023204E493B6941F823204E4A3B6900217D
:103CF00042F823104B4A3B6952F82330002B32D054
:103D00004FF4FA63BB6000BF7B681B6903F4004398
:103D1000002B04D0BB685A1EBA60002BF4D17B681C
:103D2000DB687B617B6923F47F0323F400537B61B1
:103D30003C4A3B6952F82330FF2B04D97B6943F49A
:103D40007F037B610BE0374A3B6952F823301B0449
:103D500003F47F0343F480437A6913437B617B68F8
:103D60007A691A6153E02E4A3B69134400221A70A3
:103D70004DE02B4A3B6913441B78DBB2002B46D045
:103D80002A4A3B6952F82330002B40D04FF4FA63A3
:103D9000BB6000BF7B681B6903F40043002B04D0A9
:103DA000BB685A1EBA60002BF4D17B68DB687B616C
:103DB0007B6923F03F7323F448337B611B4A3B69E3
:103DC00052F82330FF2B06D97B6943F03F7343F44D
:103DD00040337B610BE0154A3B6952F823301B04EA
:103DE00003F47F0343F480437A6913437B617B6868
:103DF0007A691A610BE0FB6803F00803002B06D018
:103E00007B680822DA627B6808225A62FFE700BFFB
:103E10001837BD4680BD00BFAC020020D002002094
:103E200000030020240300200403002034030020AA
:103E300080B487B000AFF860B9607A60FB7000238F
:103E4000FB747A68BB68B2FBF3F35B087B6105E047
:103E5000FB7C0133FB747B695B087B617B69FF2B17
:103E600002D9FB7C072BF3D9FB7C072B02D96FF01F
:103E700007031BE07B695B08DAB27B695B08796941
:103E8000CB1A1B029BB21A43FB7C1B0703F0E043D7
:103E90001A43FB781B0603F070631A437B691B040B
:103EA00003F47F031A43FB685A60002318461C374B
:103EB000BD4680BC704780B487B000AFF860B96081
:103EC0007A60FB700023FB747A68BB68B2FBF3F383
:103ED0005B087B6105E0FB7C0133FB747B695B085D
:103EE0007B617B69FF2B02D9FB7C072BF3D9FB7C21
:103EF000072B02D96FF007031BE07B695B08DAB27E
:103F00007B695B087969CB1A1B029BB21A43FB7C65
:103F10001B0703F0E0431A43FB781B0603F07063B2
:103F20001A437B691B0403F47F031A43FB689A63FB
:103F3000002318461C37BD4680BC704790B583B03F
:103F400000AF786039607868434B98477B680122FE
:103F50001A607B6880221A607B684FF0FF32DA6259
:103F60003B689B7B002B06D07B6810221A607B6825
:103F70004FF0FF329A603B685B68002B0ED03B68C5
:103F800059683B681A683B681B7B7868334CA047CC
:103F90000346002B02D06FF0070358E03B689B6894
:103FA000002B0ED03B6899683B681A683B685B7BC6
:103FB00078682B4CA0470346002B02D06FF0070314
:103FC00045E03B685B68274A934202D84FF00052B5
:103FD00001E04FF040523B68DB7B1B0603F040736F
:103FE0001A433B681B7C1B0403F4E0231A433B6821
:103FF0005B7C1B0203F440731A433B689B7C03F019
:1040000007031A437B68DA633B68DB7C1B0603F01B
:1040100040723B685B7D1B0403F4E0231A433B685A
:104020001B7D1B0503F440131A433B689B7D1B0259
:1040300003F440731A433B68DB7D03F0070313432B
:1040400043F080527B681A64074B98470023184658
:104050000C37BD4690BD00BF9D110000313E0000F1
:10406000B73E00003F420F002138000080B483B00B
:1040700000AF786039607B683A681A6200BF0C371D
:10408000BD4680BC7047000080B584B000AF78604A
:1040900039607868A84B9847B8607B6801221A603D
:1040A0007B6880221A607B6802221A607B684FF06E
:1040B000FF325A627B684FF0FF32DA623B689A68DF
:1040C0009E49BB6841F823209D4ABB6813440022E7
:1040D0001A709C4ABB68002142F823109A4ABB68B8
:1040E000002142F82310994ABB68134400221A7039
:1040F0003B681B7C002B00F0A280954ABB6840F215
:10410000015142F823103B685B7C002B07D03B68D1
:104110009B7C1B0703F0E04343F0806200E0002239
:104120003B681B68590040F2FE730B40134343F495
:104130002843FB603B68DB79002B1DD03B681A1DD0
:104140008449BB6841F823203B68DB791946824AE1
:10415000BB6842F82310804ABB6852F82330FA68E3
:104160001343FB607A4ABB6852F8233043F00202E3
:104170007749BB6841F823207B68FA68DA603B68BE
:104180005B7C002B07D03B689B7C1B0703F0E04364
:1041900043F0806200E000223B681B68590040F257
:1041A000FE730B40134343F4384343F00103FB60B9
:1041B0003B68DB68FF2B22D9614ABB6813440122AC
:1041C0001A70664ABB68FF2142F823105B4ABB683D
:1041D00052F8233003F1FF026149BB6841F8232004
:1041E0003B68DB68A3F1FF025649BB6841F8232016
:1041F000FB6843F03F7343F44033FB6011E03B68DE
:10420000DA685649BB6841F82320544ABB6852F823
:1042100023301B0403F47F0343F48043FA68134301
:10422000FB604E4ABB6852F823301B0403F47F0343
:10423000FA681343FB607B68FA681A6144E13B68E3
:10424000DB79002B00F0AE803B681A1D4149BB684A
:1042500041F823203B68DB7919463F4ABB6842F8A6
:1042600023103B4ABB6840F2035142F823103B68DD
:104270005B7C002B07D03B689B7C1B0703F0E04373
:1042800043F0806200E000223B681B68590040F266
:10429000FE730B401A433B68DB791B0403F47F0376
:1042A000134343F420427B68DA603B685B7C002B5D
:1042B00007D03B689B7C1B0703F0E04343F0806220
:1042C00000E000223B681B68590040F2FE730B407F
:1042D0001A433B68DB681B0403F47F03134343F476
:1042E000204343F00103FB603B68DB68FF2B39D9B7
:1042F000134ABB68134401221A70184ABB68FF2195
:1043000042F823100D4ABB6852F8233003F1FF0234
:104310001349BB6841F823203B68DB68A3F1FF0227
:104320000849BB6841F82320FB6843F03F7343F41E
:104330004033FB6028E000BF59390000BC02002078
:10434000000300203403002024030020CC020020BE
:10435000F0020020AC020020D0020020E002002089
:10436000140300203B68DA687749BB6841F82320D2
:10437000754ABB6852F823301B0403F47F0343F4EF
:104380008043FA681343FB606F4ABB6852F82330DE
:104390001B0403F47F03FA681343FB607B68FA682D
:1043A0001A6191E0694ABB68002142F82310684A0B
:1043B000BB6840F2015142F823103B685B7C002B44
:1043C00007D03B689B7C1B0703F0E04343F080620F
:1043D00000E000223B681B68590040F2FE730B406E
:1043E000134343F4204343F00103FB603B68DB6865
:1043F000FF2B22D9574ABB68134401221A70524A34
:10440000BB68FF2142F82310534ABB6852F823309F
:1044100003F1FF025149BB6841F823203B68DB6888
:10442000A3F1FF024E49BB6841F82320FB6843F02B
:104430003F7343F44033FB6011E03B68DA68424964
:10444000BB6841F82320404ABB6852F823301B0464
:1044500003F47F0343F48043FA681343FB603A4A52
:10446000BB6852F823301B0403F47F03FA6813433C
:10447000FB607B68FA68DA60394ABB6852F823301F
:10448000002B21D0FB6823F03F7323F44833FB60FB
:10449000334ABB6852F82330FF2B06D9FB6843F040
:1044A0003F7343F44033FB600BE02D4ABB6852F886
:1044B00023301B0403F47F0343F48043FA6813435F
:1044C000FB607B68FA681A617B6801221A60204AE7
:1044D000BB6852F823207B681A620220214B984760
:1044E00001E0214B9847214ABB6813441B785BB21B
:1044F000002B07D178681E4B9847034603F0100342
:10450000002BEED002201B4B98477B684FF0FF3208
:104510005A627B6802221A60144ABB6813441B78F3
:104520005BB213F1040F07D0104ABB6813441B7829
:104530005BB213F1020F02D14FF0FF3300E0002312
:1045400018461037BD4680BDE0020020D002002092
:10455000F002002000030020BC0200201403002011
:10456000340300205538000011390000CC0200202F
:10457000F94700009938000080B584B000AF78603A
:10458000396078688F4B9847B8607B6801221A6061
:104590007B6880221A607B6802221A607B684FF079
:1045A000FF325A627B684FF0FF32DA62864ABB689C
:1045B000134400221A70854ABB6840F2025142F847
:1045C0002310834ABB68134400221A70814ABB68D7
:1045D000002142F82310804ABB68002142F82310D2
:1045E0003B685B7C002B07D03B689B7C1B0703F080
:1045F000E04343F0806200E000223B681B68590002
:1046000040F2FE730B401A433B681B7C002B02D028
:104610004FF4006300E00023134343F42043FB60A6
:104620003B68DB79002B28D03B681A1D6B49BB68BF
:1046300041F823203B68DB791946694ABB6842F898
:104640002310634ABB68134401221A703B689A68BE
:104650006449BB6841F823203B68DA685E49BB685F
:1046600041F823205E4ABB6852F823301B0403F450
:104670007F03FA681343FB603AE03B689A68574946
:10468000BB6841F823203B68DB68FF2B1CD9504AEC
:10469000BB68134401221A70514ABB68FF2142F8DB
:1046A00023104E4ABB6852F8233003F1FF024D49F4
:1046B000BB6841F823203B68DB68A3F1FF02464951
:1046C000BB6841F8232009E03B68DA684449BB68CD
:1046D00041F82320FB6843F48043FB60404ABB68F9
:1046E00052F823301B0403F47F03FA681343FB6082
:1046F0007B68FA68DA60364ABB6813441B78DBB221
:10470000002B1FD0FB6823F47F0323F40053FB60CE
:10471000314ABB6852F82330FF2B04D9FB6843F4BD
:104720007F03FB600BE02C4ABB6852F823301B046C
:1047300003F47F0343F48043FA681343FB607B6810
:10474000FA681A617B6801221A60204ABB6852F835
:1047500023207B681A620220234B984701E0234BF9
:104760009847194ABB6813441B785BB2002B07D1EA
:1047700078681F4B9847034603F01003002BEED0D8
:1047800002201C4B98477B684FF0FF325A627B68CF
:1047900002221A600C4ABB6813441B785BB213F107
:1047A000040F07D0084ABB6813441B785BB213F1AF
:1047B000020F02D14FF0FF3300E0002318461037FC
:1047C000BD4680BD59390000CC020020F002002017
:1047D000000300203403002024030020AC0200204A
:1047E000D0020020040300205538000011390000D9
:1047F000F94700009938000080B483B000AF7860BA
:104800007B68DB6918460C37BD4680BC70470000EA
:1048100080B586B000AFF860B9607A60FB70F86868
:104820001D4B9847386100237B61FB681B4A93420C
:1048300001D14E237B61FB68194A934201D14D237C
:104840007B61FB68174A934201D13F237B61FB6880
:10485000154A934201D13D237B6114493B697A6833
:1048600041F823207B695BB21846114B98477B695E
:104870005BB2FA78114618460E4B98477B695BB2DB
:1048800018460D4B9847B968F8680C4B984700BF1D
:104890001837BD4680BD00BF5939000000C0074031
:1048A0000080074000C001400080014070040020EB
:1048B000DD36000011370000AD3600006D4000000D
:1048C00080B500AF024B1B680248984700BF80BD0F
:1048D000700400200080014080B500AF024B5B688F
:1048E0000248984700BF80BD7004002000C001400E
:1048F00080B500AF024B9B680248984700BF80BD5F
:10490000700400200080074080B500AF024BDB68D8
:104910000248984700BF80BD7004002000C00740D7
:1049200080B489B000AFF860B9607A60BB681A01E2
:104930007B689A4202D81023FB6101E00823FB61E7
:104940007B68DA00FB69B96801FB03F35B081A4472
:10495000FB69B96801FB03F3B2FBF3F3BB61BB690D
:10496000DB087B61BB6903F007033B617B69002BBC
:1049700003D07B69B3F5803F01D301230FE0FB69CE
:10498000082B05D1FB685B6843F40022FB685A6082
:104990003B691A047B691A43FB681A6200231846B4
:1049A0002437BD4680BC704780B582B000AF7860C8
:1049B00078680F4B98477B6800225A607B6800221A
:1049C0005A627B6800229A6278680A4B9847786836
:1049D000094B98477868094B98477868084B98477F
:1049E0007868084B984700BF0837BD4680BD00BFB8
:1049F0009D4B0000A54A0000D54A0000ED4A00008A
:104A0000214B0000074B000080B584B000AFF86078
:104A1000B9607A60F8681A4B98471A4B00221A60FE
:104A2000BB68002B09D0BB681B687A681946F86818
:104A3000154B98470346002B01D001231BE0BB68B0
:104A40005A68BB689B681A43BB681B691A43BB68FA
:104A5000DB681A430B4B1B6813430A4A1360094B6C
:104A60001B68084A1360FB685A68064B1B681A43A8
:104A7000FB685A60002318461037BD4680BD00BF52
:104A8000A9490000440300202149000080B483B0FC
:104A900000AF78607B6840221A6000BF0C37BD46CB
:104AA00080BC704780B483B000AF78607B68882298
:104AB0001A6000BF0C37BD4680BC704780B483B01D
:104AC00000AF78607B6810221A6000BF0C37BD46CB
:104AD00080BC704780B483B000AF78607B682422CC
:104AE0001A6000BF0C37BD4680BC704780B483B0ED
:104AF00000AF78607B684FF480721A6000BF0C379B
:104B0000BD4680BC704780B483B000AF78607B68DE
:104B10004FF400321A6000BF0C37BD4680BC7047AE
:104B200080B483B000AF78607B684FF400221A60D5
:104B300000BF0C37BD4680BC704780B483B000AF67
:104B4000786039607B685B6903F00203002B01D158
:104B5000012305E03B68C3F308027B68DA610023A8
:104B600018460C37BD4680BC704780B483B000AF98
:104B7000786039607B685B6903F00103002B01D129
:104B8000012306E07B689B69C3F308023B681A6057
:104B9000002318460C37BD4680BC704780B483B0F4
:104BA00000AF78607B68044AC3F8E42000BF0C378C
:104BB000BD4680BC704700BF0041535580B483B0F0
:104BC00000AF0346FB71FB790D2B2BD801A252F8E5
:104BD00023F000BF0D4C0000114C0000254C0000DC
:104BE000174C00001B4C0000254C0000254C000019
:104BF000254C0000254C0000254C0000254C0000F1
:104C0000254C0000254C00001F4C0000084B0AE01A
:104C10004FF4004307E0074B05E0074B03E04FF478
:104C2000004300E0002318460C37BD4680BC7047A7
:104C300038C10100001BB70000B4C40480B500AF48
:104C40000120044B984702464FF4B76303FB02F37D
:104C5000184680BDBD4B000080B500AF024B9847A1
:104C60000346184680BD00BF3D4C000080B584B0AF
:104C700000AF78601A4B1B6803F40033002B0ED191
:104C8000184B9847034603F560439C335B00013B98
:104C9000DB08154AA2FB03235B0AFB6008E0114B0B
:104CA0009847034603F580435B00013BDB0BFB6049
:104CB000FB68DB08FB6000BFFB685A1EFA60002B34
:104CC000FAD1074A7B6843F0AA431360044A7B6821
:104CD00043F02A43136000BF1037BD4680BD00BFBC
:104CE000000C0F40594C0000AB381E0980B483B053
:104CF00000AF78607B6800221A607B6800225A60EF
:104D00007B6800229A607B6810221A737B680022FD
:104D10005A737B6801229A737B680122DA737B687D
:104D200000221A7400BF0C37BD4680BC70470000DB
:104D300080B584B000AFF860B9607A60FB68BA688B
:104D40001A60FB687A685A60B868374B9847BB6846
:104D50001B6803F00803002B01D0002360E0BB6850
:104D60001B6803F00103002B0DD0BB681B6823F008
:104D7000010318462D4B984700BFBB681B6803F022
:104D80000103002BF9D1BB681B6803F48033002BAF
:104D90000DD0BB681B6823F480331846234B98471B
:104DA00000BFBB681B6803F48033002BF9D17B681C
:104DB0001A687B685B681A437B689B681A437B6848
:104DC0001B7B1B0203F4F8531A437B685B7B9B0439
:104DD00003F4F8031A437B689B7B002B01D08023EC
:104DE00000E000231A437B68DB7B002B01D0022309
:104DF00000E00023134318460C4B9847BB681B6820
:104E000043F480331846094B984700BFBB681B68C2
:104E100003F48033002BF9D0B868054B9847012381
:104E200018461037BD4680BD9D1100006D4C000036
:104E3000CD15000080B584B000AF78607B681B683A
:104E4000FB60FB681B6823F001031846074B98477B
:104E500000BFFB681B6803F00103002BF9D1F86861
:104E6000034B984700BF1037BD4680BD6D4C000016
:104E7000CD15000080B400AFFEE7000080B582B021
:104E800000AF164B7B60164B3B607A683B689A42DA
:104E90000CD007E03B681A1D3A607A68111D7960F2
:104EA00012681A603B680F4A9342F3D30E4B3B6083
:104EB00004E03B681A1D3A6000221A603B680B4A06
:104EC0009342F6D30A4B7B600A4A7B6823F07F0348
:104ED0009360094B9847094B9847FEE728970000D5
:104EE0000000002050020020500200209404002006
:104EF0000000000000ED00E069590000C15800000A
:104F000080B485B000AF7860104BFB60104B1B681D
:104F1000002B02D10E4B0F4A1A600D4B1B68BB6071
:104F2000BA687B681A44FB689A4202DD4FF0FF338F
:104F300006E0074B1A687B681344054A1360BB6898
:104F400018461437BD4680BC704700BFFC7F002068
:104F5000480300209814002080B483B000AF78602C
:104F60004FF0FF3318460C37BD4680BC704780B405
:104F700083B000AF786039603B684FF400525A60EC
:104F8000002318460C37BD4680BC704780B483B000
:104F900000AF7860012318460C37BD4680BC7047CF
:104FA00080B485B000AFF860B9607A60002318461D
:104FB0001437BD4680BC704780B582B000AFFB1D82
:104FC000012219461348144B984772B6BFF35F8FFE
:104FD000124B00221A70124B1B781A46F979114BAA
:104FE00099540F4B1B789B2B03D10D4B00221A7049
:104FF00005E00B4B1B780133DAB2094B1A70074BF3
:1050000001221A70BFF35F8F62B600BF0837BD463A
:1050100080BD00BF00400240A91B000074000020BA
:10502000E80300204C03002080B483B000AF0346A7
:105030003960FB7197F90730002B0BDA0D49FB79CA
:1050400003F00F03043B3A68D2B21201D2B20B4410
:105050001A7609E0084997F907303A68D2B2120186
:10506000D2B20B4483F8002300BF0C37BD4680BC8E
:10507000704700BF00ED00E000E100E080B582B0C5
:1050800000AF78607B68013BB3F1807F01D30123DF
:105090000FE00A4A7B68013B53600F214FF0FF305D
:1050A000074B9847054B00229A60044B07221A6071
:1050B000002318460837BD4680BD00BF10E000E061
:1050C0002950000080B483B000AF78600B46FB70BD
:1050D000FB78012202FA03F31A467B681A6300BFC9
:1050E0000C37BD4680BC704780B483B000AF786099
:1050F0000B46FB70FB78012202FA03F31A467B6829
:105100001A617B68DB6800BF0C37BD4680BC704706
:1051100080B483B000AF78600B46FB707B68DB68BF
:10512000FA78012101FA02F21340002B14BF012387
:105130000023DBB218460C37BD4680BC7047000028
:1051400080B483B000AF0346FB71FB790D2B2BD8E5
:1051500001A252F823F000BF9151000095510000C8
:10516000A95100009B5100009F510000A95100006F
:10517000A9510000A9510000A9510000A951000047
:10518000A9510000A9510000A9510000A35100003D
:10519000084B0AE04FF4004307E0074B05E0074BDC
:1051A00003E04FF4004300E0002318460C37BD46EF
:1051B00080BC704738C10100001BB70000B4C404B4
:1051C00080B500AF0120044B984702464FF4B76307
:1051D00003FB02F3184680BD4151000080B500AFCB
:1051E000024B98470346184680BD00BFC1510000DE
:1051F00080B489B000AF78607B68FB61FB69BB61FC
:10520000BB697B617B695B093B613B6903F500130B
:1052100003F5E1635B021A6EFB69FB60FB6803F058
:105220001F03012101FA03F31340002B14BF0123D4
:105230000023DBB218462437BD4680BC704700000F
:1052400080B588B000AF786039603B681B68BB6090
:105250003B685B68FB603B689B683B613B68DB6865
:105260007B610023BB617B682F4A934212D178682F
:105270002E4B984778682E4B9847024607F1080353
:10528000194678682B4B984778682B4B9847786875
:105290002A4B98477B682A4A934212D17868234B5D
:1052A00098477868224B9847024607F10803194649
:1052B0007868204B984778681F4B984778681F4B51
:1052C00098477B681F4A934212D17868174B9847DA
:1052D0007868174B9847024607F108031946786823
:1052E000144B98477868144B98477868134B984745
:1052F0007B68154A934212D178680C4B98477868BE
:105300000B4B9847024607F1080319467868094B8A
:1053100098477868084B98477868084B984700BFCB
:105320002037BD4680BD00BF004002409D110000F7
:10533000310F0000094A00008D4A0000BD4A0000FC
:105340000080024000C002400000034080B582B0EF
:1053500000AF78600B46FB707B68204A93420AD10D
:1053600000BFFB78194678681D4B98470346002B11
:10537000F7D101232DE07B681A4A93420AD100BF7E
:10538000FB7819467868164B98470346002BF7D1EF
:1053900001231EE07B68144A93420AD100BFFB78C8
:1053A000194678680E4B98470346002BF7D1012326
:1053B0000FE07B680D4A93420AD100BFFB78194683
:1053C0007868074B98470346002BF7D1012300E08C
:1053D000002318460837BD4680BD00BF004002408C
:1053E0003B4B00000080024000C002400000034030
:1053F00080B584B000AF786039600023FB607B68C3
:10540000254A93420DD100BF07F10C031946786875
:10541000224B98470346002BF6D1FB68DAB23B6873
:105420001A707B681E4A93420DD100BF07F10C032E
:1054300019467868194B98470346002BF6D1FB684C
:10544000DAB23B681A707B68164A93420DD100BFEE
:1054500007F10C0319467868104B98470346002B58
:10546000F6D1FB68DAB23B681A707B680E4A934249
:105470000DD100BF07F10C0319467868074B984718
:105480000346002BF6D1FB68DAB23B681A7000BF06
:105490001037BD4680BD00BF004002406B4B00008E
:1054A0000080024000C002400000034080B582B08E
:1054B00000AF786039600F4A7B6813600E4B0F4A6B
:1054C0001A600F4B0F4A1A60396878680E4B98477C
:1054D0000E4B1B689B68002118460D4B98470B4BE1
:1054E0001B685B6800211846094B984700BF0837C6
:1054F000BD4680BD08040020040400204D53000078
:1055000000040020F1530000415200008000002000
:10551000B162000080B500AF184B1B680133174A19
:105520001360174B1A68174B1749104698470346E4
:105530001A46164B1046984703461846144B984790
:105540000A210320134B98470C4B1B68124A9342C5
:1055500012DD0B4B1A680B4B0B491046984703465C
:105560001A460A4B1046984703461846084B984778
:105570000A210320074B984700BF80BDEC030020A1
:10558000840400201191000000007A44B1930000CF
:1055900005210000C52000009E86010090B585B061
:1055A00000AF074B3C460FCB84E80F003B46194643
:1055B0000448054B984700BF1437BD4690BD00BF57
:1055C0000894000000800240AD54000090B587B000
:1055D00000AF00233B740023FB730023BB74002344
:1055E0007B7400233B7500237B750023FB74002331
:1055F000FB750023BB750E4B984703463B600D4B74
:105600007B600023BB730023BB6000233B7300233C
:105610007B733B4619460848084B98470123084AC4
:1056200000210548074CA04700BF1C37BD4690BD70
:10563000DD510000A086010000C007403D3F000092
:10564000AD3900001148000080B58CB000AF2F4B81
:105650001B88BB854F23BB6100233B7700237B77EF
:105660000023BB770023FB77002387F82930002332
:1056700087F82A30002387F8283007F12C033B6293
:1056800002237B6207F1180319462148214B9847F2
:10569000002387F82C304F23BB6100233B77002386
:1056A0007B770023BB770023FB77002387F8293023
:1056B000002387F82A30002387F8283007F12C03CD
:1056C0003B6201237B6207F1180319461048114B16
:1056D00098474F237B6000233B7200237B7200239B
:1056E000BB720023FB7200237B750023BB75002374
:1056F0003B75094BFB6002233B613B1D1946044887
:10570000064B984700BF3037BD4680BD1894000057
:1057100000C00740794500007C000020894000005F
:1057200080B500AF01213B483B4B98470346002B17
:1057300003D001213748394B9847394B1A78394BF8
:10574000104698470246384B1A60354B5A78354B0D
:10575000104698470246354B1A60344B1A68344B52
:105760004FF087411046984703461A462F4B1A6060
:105770002D4B1A682D4B19682E4B1046984703463F
:105780001A462D4B1A602C4B1A682C4B2C4910468C
:10579000984703461A46274B4FF0844110469847D6
:1057A00003461A46274B1A60264B1A68234B264994
:1057B0001046984703461A46244B1046984703461E
:1057C0001846234B98470A210320224B984702E0B2
:1057D0005820214B984758201F4B9847034683F089
:1057E0000103DBB2002BF3D1134B1A68134B16499C
:1057F0001046984703461A46144B104698470346EE
:105800001846134B98470A210320124B984700BFB4
:1058100080BD00BF00100F4011510000E950000092
:105820007C0000206190000088040020800400209B
:1058300079920000018F0000840400201191000083
:105840006666E63F8C04002000007A44B1930000B5
:1058500005210000C5200000F151000090B585B081
:1058600002AF1148114B984700233B7000237B7017
:105870000023BB700023FB7001233B713B461A469B
:10588000012109480A4B9847012300932D23094A17
:1058900001210548084CA04701210348074B9847C0
:1058A00000BF0C37BD4690BD00100F4065270000BB
:1058B000712600002157000089270000C550000014
:1058C00098B500AF184B9847184B9847184B984716
:1058D000184B9847184B98470246184BA3FB0223D6
:1058E0009B091846164B9847164B9847164B9847F6
:1058F000164B9847164B1B7819461648164B984777
:10590000134B5B7819461348134B9847134B1A688F
:10591000134B1046984703460C461A462346114837
:105920000D498847FEE700BF791F0000211A0000DB
:105930009D55000035200000DD510000D34D621060
:105940007D500000CD550000495600005D58000014
:105950007C00002038940000816200008404002054
:105960009D8800004094000070B50D4E0D4CA41BA6
:10597000A4100025A54209D10B4E0C4C03F0C4FE27
:10598000A41BA4100025A54205D170BD56F82530F2
:1059900098470135EEE756F8253098470135F2E78C
:1059A0001497000014970000149700001897000047
:1059B00002440346934200D1704703F8011BF9E704
:1059C0002DE9F04788B0002B149F1299109DDDF847
:1059D0004CA01E4627F02007BBBF03F100431E4624
:1059E00000232D23462F14460B7004D0452F00D1E1
:1059F0000135022300E0032307AA049206AA0392BA
:105A00008DE828042246334600F0C2FD472F804629
:105A100002D1119BDB0726D5462F08EB050911D1D2
:105A200098F80030302B0AD100220023204631465E
:105A300003F0F0F918B9C5F10105CAF80050DAF819
:105A400000309944002200232046314603F0E2F959
:105A500038B93022079B994505D9591C07911A700E
:105A6000F8E7CDF81C90079B159AA3EB0803404676
:105A7000136008B0BDE8F087F7B503460029B8BF4A
:105A8000494203F8022BB4BF2D222B220929427070
:105A900020DD0DF1070217460A2691FBF6F506FBFD
:105AA00015113031092D02F8011C02F1FF3429468D
:105AB00009DC3031023A04F8011CBA421C4604D316
:105AC000201A03B0F0BD2246E7E712F8011B03F8E5
:105AD000011BF2E730221C46114404F8022B5970D6
